{
  "contractName": "VotingSystem",
  "abi": [
    {
      "inputs": [],
      "stateMutability": "nonpayable",
      "type": "constructor"
    },
    {
      "inputs": [
        {
          "internalType": "address",
          "name": "owner",
          "type": "address"
        }
      ],
      "name": "OwnableInvalidOwner",
      "type": "error"
    },
    {
      "inputs": [
        {
          "internalType": "address",
          "name": "account",
          "type": "address"
        }
      ],
      "name": "OwnableUnauthorizedAccount",
      "type": "error"
    },
    {
      "anonymous": false,
      "inputs": [
        {
          "indexed": true,
          "internalType": "address",
          "name": "previousOwner",
          "type": "address"
        },
        {
          "indexed": true,
          "internalType": "address",
          "name": "newOwner",
          "type": "address"
        }
      ],
      "name": "OwnershipTransferred",
      "type": "event"
    },
    {
      "anonymous": false,
      "inputs": [
        {
          "indexed": true,
          "internalType": "address",
          "name": "organizationOwner",
          "type": "address"
        },
        {
          "indexed": false,
          "internalType": "uint256",
          "name": "organizationId",
          "type": "uint256"
        }
      ],
      "name": "organizationCreated",
      "type": "event"
    },
    {
      "anonymous": false,
      "inputs": [
        {
          "indexed": true,
          "internalType": "address",
          "name": "candidate",
          "type": "address"
        },
        {
          "indexed": false,
          "internalType": "uint256",
          "name": "voteId",
          "type": "uint256"
        },
        {
          "indexed": false,
          "internalType": "uint256",
          "name": "OrganizationId",
          "type": "uint256"
        },
        {
          "indexed": false,
          "internalType": "uint256",
          "name": "option",
          "type": "uint256"
        }
      ],
      "name": "voteSubmitted",
      "type": "event"
    },
    {
      "inputs": [
        {
          "internalType": "uint256",
          "name": "",
          "type": "uint256"
        }
      ],
      "name": "Organizations",
      "outputs": [
        {
          "internalType": "string",
          "name": "name",
          "type": "string"
        },
        {
          "internalType": "address",
          "name": "owner",
          "type": "address"
        },
        {
          "internalType": "uint256",
          "name": "id",
          "type": "uint256"
        },
        {
          "internalType": "enum VotingSystem.organizationStatus",
          "name": "status",
          "type": "uint8"
        }
      ],
      "stateMutability": "view",
      "type": "function",
      "constant": true
    },
    {
      "inputs": [
        {
          "internalType": "uint256",
          "name": "",
          "type": "uint256"
        },
        {
          "internalType": "uint256",
          "name": "",
          "type": "uint256"
        },
        {
          "internalType": "address",
          "name": "",
          "type": "address"
        }
      ],
      "name": "VotesRecord",
      "outputs": [
        {
          "internalType": "uint256",
          "name": "",
          "type": "uint256"
        }
      ],
      "stateMutability": "view",
      "type": "function",
      "constant": true
    },
    {
      "inputs": [
        {
          "internalType": "address",
          "name": "",
          "type": "address"
        }
      ],
      "name": "existingOwners",
      "outputs": [
        {
          "internalType": "bool",
          "name": "",
          "type": "bool"
        }
      ],
      "stateMutability": "view",
      "type": "function",
      "constant": true
    },
    {
      "inputs": [],
      "name": "nextOrgId",
      "outputs": [
        {
          "internalType": "uint256",
          "name": "",
          "type": "uint256"
        }
      ],
      "stateMutability": "view",
      "type": "function",
      "constant": true
    },
    {
      "inputs": [],
      "name": "owner",
      "outputs": [
        {
          "internalType": "address",
          "name": "",
          "type": "address"
        }
      ],
      "stateMutability": "view",
      "type": "function",
      "constant": true
    },
    {
      "inputs": [
        {
          "internalType": "address",
          "name": "newOwner",
          "type": "address"
        }
      ],
      "name": "transferOwnership",
      "outputs": [],
      "stateMutability": "nonpayable",
      "type": "function"
    },
    {
      "inputs": [],
      "name": "renounceOwnership",
      "outputs": [],
      "stateMutability": "view",
      "type": "function",
      "constant": true
    },
    {
      "inputs": [
        {
          "internalType": "string",
          "name": "name",
          "type": "string"
        }
      ],
      "name": "CreateOrganization",
      "outputs": [],
      "stateMutability": "nonpayable",
      "type": "function"
    },
    {
      "inputs": [
        {
          "internalType": "uint256",
          "name": "OrganizationId",
          "type": "uint256"
        },
        {
          "internalType": "string",
          "name": "name",
          "type": "string"
        },
        {
          "internalType": "uint256",
          "name": "endDate",
          "type": "uint256"
        },
        {
          "internalType": "string[]",
          "name": "options",
          "type": "string[]"
        }
      ],
      "name": "createVote",
      "outputs": [],
      "stateMutability": "nonpayable",
      "type": "function"
    },
    {
      "inputs": [
        {
          "internalType": "uint256",
          "name": "OrganizationId",
          "type": "uint256"
        },
        {
          "internalType": "uint256",
          "name": "voteId",
          "type": "uint256"
        },
        {
          "internalType": "uint256",
          "name": "optionNr",
          "type": "uint256"
        }
      ],
      "name": "sumbitVote",
      "outputs": [],
      "stateMutability": "nonpayable",
      "type": "function"
    },
    {
      "inputs": [
        {
          "internalType": "uint256",
          "name": "OrganizationId",
          "type": "uint256"
        }
      ],
      "name": "approveOrganization",
      "outputs": [],
      "stateMutability": "nonpayable",
      "type": "function"
    },
    {
      "inputs": [
        {
          "internalType": "uint256",
          "name": "OrganizationId",
          "type": "uint256"
        }
      ],
      "name": "BanOrganization",
      "outputs": [],
      "stateMutability": "nonpayable",
      "type": "function"
    },
    {
      "inputs": [
        {
          "internalType": "uint256",
          "name": "OrganizationId",
          "type": "uint256"
        }
      ],
      "name": "unBanOrganization",
      "outputs": [],
      "stateMutability": "nonpayable",
      "type": "function"
    },
    {
      "inputs": [
        {
          "internalType": "uint256",
          "name": "OrganizationId",
          "type": "uint256"
        }
      ],
      "name": "becomeMember",
      "outputs": [],
      "stateMutability": "nonpayable",
      "type": "function"
    },
    {
      "inputs": [
        {
          "internalType": "uint256",
          "name": "OrganizationId",
          "type": "uint256"
        },
        {
          "internalType": "uint256",
          "name": "memberIndex",
          "type": "uint256"
        }
      ],
      "name": "revokeMembership",
      "outputs": [],
      "stateMutability": "nonpayable",
      "type": "function"
    },
    {
      "inputs": [
        {
          "internalType": "uint256",
          "name": "OrganizationId",
          "type": "uint256"
        }
      ],
      "name": "getAllVoteCampaigns",
      "outputs": [
        {
          "components": [
            {
              "internalType": "string",
              "name": "name",
              "type": "string"
            },
            {
              "internalType": "uint256",
              "name": "startDate",
              "type": "uint256"
            },
            {
              "internalType": "uint256",
              "name": "endDate",
              "type": "uint256"
            },
            {
              "internalType": "string[]",
              "name": "options",
              "type": "string[]"
            }
          ],
          "internalType": "struct VotingSystem.Vote[]",
          "name": "",
          "type": "tuple[]"
        }
      ],
      "stateMutability": "view",
      "type": "function",
      "constant": true
    },
    {
      "inputs": [
        {
          "internalType": "uint256",
          "name": "OrganizationId",
          "type": "uint256"
        }
      ],
      "name": "getAllOrganizationMembers",
      "outputs": [
        {
          "internalType": "address[]",
          "name": "",
          "type": "address[]"
        }
      ],
      "stateMutability": "view",
      "type": "function",
      "constant": true
    },
    {
      "inputs": [
        {
          "internalType": "uint256",
          "name": "OrganizationId",
          "type": "uint256"
        },
        {
          "internalType": "uint256",
          "name": "voteId",
          "type": "uint256"
        }
      ],
      "name": "getAVoteSubmissions",
      "outputs": [
        {
          "internalType": "address[]",
          "name": "",
          "type": "address[]"
        },
        {
          "internalType": "uint256[]",
          "name": "",
          "type": "uint256[]"
        }
      ],
      "stateMutability": "view",
      "type": "function",
      "constant": true
    }
  ],
  "bytecode": "0x608060405234801562000010575f80fd5b50335f73ffffffffffffffffffffffffffffffffffffffff168173ffffffffffffffffffffffffffffffffffffffff160362000085575f6040517f1e4fbdf70000000000000000000000000000000000000000000000000000000081526004016200007c9190620001a1565b60405180910390fd5b62000096816200009d60201b60201c565b50620001bc565b5f805f9054906101000a900473ffffffffffffffffffffffffffffffffffffffff169050815f806101000a81548173ffffffffffffffffffffffffffffffffffffffff021916908373ffffffffffffffffffffffffffffffffffffffff1602179055508173ffffffffffffffffffffffffffffffffffffffff168173ffffffffffffffffffffffffffffffffffffffff167f8be0079c531659141344cd1fd0a4f28419497f9722a3daafe3b4186f6b6457e060405160405180910390a35050565b5f73ffffffffffffffffffffffffffffffffffffffff82169050919050565b5f62000189826200015e565b9050919050565b6200019b816200017d565b82525050565b5f602082019050620001b65f83018462000190565b92915050565b61384a80620001ca5f395ff3fe608060405234801561000f575f80fd5b5060043610610113575f3560e01c806384ed8744116100a0578063c1faa19b1161006f578063c1faa19b146102dc578063d278286a146102f8578063d7e54c6d14610329578063ea9d508814610345578063f2fde38b1461036157610113565b806384ed8744146102545780638a5f067c146102705780638da5cb5b1461028e578063b2618c8c146102ac57610113565b806337bc8c65116100e757806337bc8c65146101b257806341f9b3c9146101ce5780634c8fa378146101fe5780636d98fdcd1461022e578063715018a61461024a57610113565b80621045ad1461011757806308648c591461014a5780630dddf063146101665780631e5fae0d14610182575b5f80fd5b610131600480360381019061012c9190611f11565b61037d565b6040516101419493929190612087565b60405180910390f35b610164600480360381019061015f9190611f11565b61045a565b005b610180600480360381019061017b9190611f11565b6106a1565b005b61019c60048036038101906101979190611f11565b6107b3565b6040516101a99190612188565b60405180910390f35b6101cc60048036038101906101c79190611f11565b610898565b005b6101e860048036038101906101e39190611f11565b6109ab565b6040516101f591906123dc565b60405180910390f35b61021860048036038101906102139190612426565b610bd8565b604051610225919061246b565b60405180910390f35b610248600480360381019061024391906125b0565b610bf5565b005b610252610de0565b005b61026e600480360381019061026991906125f7565b610e23565b005b610278611242565b6040516102859190612647565b60405180910390f35b610296611248565b6040516102a39190612660565b60405180910390f35b6102c660048036038101906102c19190612679565b61126f565b6040516102d39190612647565b60405180910390f35b6102f660048036038101906102f191906126c9565b61129a565b005b610312600480360381019061030d91906126c9565b6115d8565b6040516103209291906127af565b60405180910390f35b610343600480360381019061033e9190611f11565b611784565b005b61035f600480360381019061035a91906128c6565b611896565b005b61037b60048036038101906103769190612426565b611c28565b005b6001602052805f5260405f205f91509050805f01805461039c9061298f565b80601f01602080910402602001604051908101604052809291908181526020018280546103c89061298f565b80156104135780601f106103ea57610100808354040283529160200191610413565b820191905f5260205f20905b8154815290600101906020018083116103f657829003601f168201915b505050505090806001015f9054906101000a900473ffffffffffffffffffffffffffffffffffffffff1690806002015490806003015f9054906101000a900460ff16905084565b80600454811061049f576040517f08c379a000000000000000000000000000000000000000000000000000000000815260040161049690612a2f565b60405180910390fd5b81600160028111156104b4576104b3612014565b5b60015f8381526020019081526020015f206003015f9054906101000a900460ff1660028111156104e7576104e6612014565b5b14610527576040517f08c379a000000000000000000000000000000000000000000000000000000000815260040161051e90612a97565b60405180910390fd5b825f805b60015f8481526020019081526020015f20600401805490508110156105e6573373ffffffffffffffffffffffffffffffffffffffff1660015f8581526020019081526020015f20600401828154811061058757610586612ab5565b5b905f5260205f20015f9054906101000a900473ffffffffffffffffffffffffffffffffffffffff1673ffffffffffffffffffffffffffffffffffffffff16036105d357600191506105e6565b80806105de90612b0f565b91505061052b565b508015610628576040517f08c379a000000000000000000000000000000000000000000000000000000000815260040161061f90612bc6565b60405180910390fd5b60015f8681526020019081526020015f2060040133908060018154018082558091505060019003905f5260205f20015f9091909190916101000a81548173ffffffffffffffffffffffffffffffffffffffff021916908373ffffffffffffffffffffffffffffffffffffffff1602179055505050505050565b6106a9611cac565b8060045481106106ee576040517f08c379a00000000000000000000000000000000000000000000000000000000081526004016106e590612a2f565b60405180910390fd5b5f600281111561070157610700612014565b5b60015f8481526020019081526020015f206003015f9054906101000a900460ff16600281111561073457610733612014565b5b14610774576040517f08c379a000000000000000000000000000000000000000000000000000000000815260040161076b90612c54565b60405180910390fd5b6001805f8481526020019081526020015f206003015f6101000a81548160ff021916908360028111156107aa576107a9612014565b5b02179055505050565b60608160045481106107fa576040517f08c379a00000000000000000000000000000000000000000000000000000000081526004016107f190612a2f565b60405180910390fd5b60015f8481526020019081526020015f2060040180548060200260200160405190810160405280929190818152602001828054801561088b57602002820191905f5260205f20905b815f9054906101000a900473ffffffffffffffffffffffffffffffffffffffff1673ffffffffffffffffffffffffffffffffffffffff1681526020019060010190808311610842575b5050505050915050919050565b6108a0611cac565b8060045481106108e5576040517f08c379a00000000000000000000000000000000000000000000000000000000081526004016108dc90612a2f565b60405180910390fd5b5f60028111156108f8576108f7612014565b5b60015f8481526020019081526020015f206003015f9054906101000a900460ff16600281111561092b5761092a612014565b5b0361096b576040517f08c379a000000000000000000000000000000000000000000000000000000000815260040161096290612ce2565b60405180910390fd5b600260015f8481526020019081526020015f206003015f6101000a81548160ff021916908360028111156109a2576109a1612014565b5b02179055505050565b60608160045481106109f2576040517f08c379a00000000000000000000000000000000000000000000000000000000081526004016109e990612a2f565b60405180910390fd5b60015f8481526020019081526020015f20600501805480602002602001604051908101604052809291908181526020015f905b82821015610bcc578382905f5260205f2090600402016040518060800160405290815f82018054610a559061298f565b80601f0160208091040260200160405190810160405280929190818152602001828054610a819061298f565b8015610acc5780601f10610aa357610100808354040283529160200191610acc565b820191905f5260205f20905b815481529060010190602001808311610aaf57829003601f168201915b50505050508152602001600182015481526020016002820154815260200160038201805480602002602001604051908101604052809291908181526020015f905b82821015610bb5578382905f5260205f20018054610b2a9061298f565b80601f0160208091040260200160405190810160405280929190818152602001828054610b569061298f565b8015610ba15780601f10610b7857610100808354040283529160200191610ba1565b820191905f5260205f20905b815481529060010190602001808311610b8457829003601f168201915b505050505081526020019060010190610b0d565b505050508152505081526020019060010190610a25565b50505050915050919050565b6002602052805f5260405f205f915054906101000a900460ff1681565b60025f3373ffffffffffffffffffffffffffffffffffffffff1673ffffffffffffffffffffffffffffffffffffffff1681526020019081526020015f205f9054906101000a900460ff1615610c7f576040517f08c379a0000000000000000000000000000000000000000000000000000000008152600401610c7690612d70565b60405180910390fd5b5f60015f60045481526020019081526020015f20905081815f019081610ca59190612f2b565b5033816001015f6101000a81548173ffffffffffffffffffffffffffffffffffffffff021916908373ffffffffffffffffffffffffffffffffffffffff16021790555060045481600201819055505f816003015f6101000a81548160ff02191690836002811115610d1957610d18612014565b5b02179055503373ffffffffffffffffffffffffffffffffffffffff167fc4ca42f5f7e8cf852f03efe1043a4416b36cf2412afda4cc49e1da79058ea4f7600454604051610d669190612647565b60405180910390a2600160045f828254610d809190612ffa565b92505081905550600160025f3373ffffffffffffffffffffffffffffffffffffffff1673ffffffffffffffffffffffffffffffffffffffff1681526020019081526020015f205f6101000a81548160ff0219169083151502179055505050565b610de8611cac565b6040517f08c379a0000000000000000000000000000000000000000000000000000000008152600401610e1a9061309d565b60405180910390fd5b826004548110610e68576040517f08c379a0000000000000000000000000000000000000000000000000000000008152600401610e5f90612a2f565b60405180910390fd5b835f805b60015f8481526020019081526020015f2060040180549050811015610f27573373ffffffffffffffffffffffffffffffffffffffff1660015f8581526020019081526020015f206004018281548110610ec857610ec7612ab5565b5b905f5260205f20015f9054906101000a900473ffffffffffffffffffffffffffffffffffffffff1673ffffffffffffffffffffffffffffffffffffffff1603610f145760019150610f27565b8080610f1f90612b0f565b915050610e6c565b5080610f68576040517f08c379a0000000000000000000000000000000000000000000000000000000008152600401610f5f9061312b565b60405180910390fd5b8560016002811115610f7d57610f7c612014565b5b60015f8381526020019081526020015f206003015f9054906101000a900460ff166002811115610fb057610faf612014565b5b14610ff0576040517f08c379a0000000000000000000000000000000000000000000000000000000008152600401610fe790612a97565b60405180910390fd5b86868060015f8481526020019081526020015f20600501805490501161104b576040517f08c379a000000000000000000000000000000000000000000000000000000000815260040161104290613193565b60405180910390fd5b4260015f8481526020019081526020015f20600501828154811061107257611071612ab5565b5b905f5260205f20906004020160020154116110c2576040517f08c379a00000000000000000000000000000000000000000000000000000000081526004016110b9906131fb565b60405180910390fd5b8888885f8103611107576040517f08c379a00000000000000000000000000000000000000000000000000000000081526004016110fe90613289565b60405180910390fd5b8060015f8581526020019081526020015f20600501838154811061112e5761112d612ab5565b5b905f5260205f209060040201600301805490501015611182576040517f08c379a0000000000000000000000000000000000000000000000000000000008152600401611179906132f1565b60405180910390fd5b8960035f8e81526020019081526020015f205f8d81526020019081526020015f205f3373ffffffffffffffffffffffffffffffffffffffff1673ffffffffffffffffffffffffffffffffffffffff1681526020019081526020015f20819055503373ffffffffffffffffffffffffffffffffffffffff167f40b5ac051bfd2ca78666eef86fc6febbe8ecf391a1930b057b851aff873d6b698c8e8d60405161122c9392919061330f565b60405180910390a2505050505050505050505050565b60045481565b5f805f9054906101000a900473ffffffffffffffffffffffffffffffffffffffff16905090565b6003602052825f5260405f20602052815f5260405f20602052805f5260405f205f9250925050505481565b8160045481106112df576040517f08c379a00000000000000000000000000000000000000000000000000000000081526004016112d690612a2f565b60405180910390fd5b825f805b60015f8481526020019081526020015f206004018054905081101561139e573373ffffffffffffffffffffffffffffffffffffffff1660015f8581526020019081526020015f20600401828154811061133f5761133e612ab5565b5b905f5260205f20015f9054906101000a900473ffffffffffffffffffffffffffffffffffffffff1673ffffffffffffffffffffffffffffffffffffffff160361138b576001915061139e565b808061139690612b0f565b9150506112e3565b50806113df576040517f08c379a00000000000000000000000000000000000000000000000000000000081526004016113d69061312b565b60405180910390fd5b3373ffffffffffffffffffffffffffffffffffffffff1660015f8781526020019081526020015f20600401858154811061141c5761141b612ab5565b5b905f5260205f20015f9054906101000a900473ffffffffffffffffffffffffffffffffffffffff1673ffffffffffffffffffffffffffffffffffffffff161461149a576040517f08c379a0000000000000000000000000000000000000000000000000000000008152600401611491906133b4565b60405180910390fd5b5f60015f8781526020019081526020015f2060040180549050905060015f8781526020019081526020015f206004016001826114d691906133d2565b815481106114e7576114e6612ab5565b5b905f5260205f20015f9054906101000a900473ffffffffffffffffffffffffffffffffffffffff1660015f8881526020019081526020015f20600401868154811061153557611534612ab5565b5b905f5260205f20015f6101000a81548173ffffffffffffffffffffffffffffffffffffffff021916908373ffffffffffffffffffffffffffffffffffffffff16021790555060015f8781526020019081526020015f2060040180548061159e5761159d613405565b5b600190038181905f5260205f20015f6101000a81549073ffffffffffffffffffffffffffffffffffffffff02191690559055505050505050565b6060805f60015f8681526020019081526020015f2060040180548060200260200160405190810160405280929190818152602001828054801561166d57602002820191905f5260205f20905b815f9054906101000a900473ffffffffffffffffffffffffffffffffffffffff1673ffffffffffffffffffffffffffffffffffffffff1681526020019060010190808311611624575b505050505090505f815167ffffffffffffffff8111156116905761168f61248c565b5b6040519080825280602002602001820160405280156116be5781602001602082028036833780820191505090505b5090505f5b82518110156117745760035f8881526020019081526020015f205f8781526020019081526020015f205f848381518110611700576116ff612ab5565b5b602002602001015173ffffffffffffffffffffffffffffffffffffffff1673ffffffffffffffffffffffffffffffffffffffff1681526020019081526020015f205482828151811061175557611754612ab5565b5b602002602001018181525050808061176c90612b0f565b9150506116c3565b5081819350935050509250929050565b61178c611cac565b8060045481106117d1576040517f08c379a00000000000000000000000000000000000000000000000000000000081526004016117c890612a2f565b60405180910390fd5b6002808111156117e4576117e3612014565b5b60015f8481526020019081526020015f206003015f9054906101000a900460ff16600281111561181757611816612014565b5b14611857576040517f08c379a000000000000000000000000000000000000000000000000000000000815260040161184e906134a2565b60405180910390fd5b6001805f8481526020019081526020015f206003015f6101000a81548160ff0219169083600281111561188d5761188c612014565b5b02179055505050565b8360045481106118db576040517f08c379a00000000000000000000000000000000000000000000000000000000081526004016118d290612a2f565b60405180910390fd5b843373ffffffffffffffffffffffffffffffffffffffff1660015f8381526020019081526020015f206001015f9054906101000a900473ffffffffffffffffffffffffffffffffffffffff1673ffffffffffffffffffffffffffffffffffffffff161461197d576040517f08c379a000000000000000000000000000000000000000000000000000000000815260040161197490613530565b60405180910390fd5b835f4290508082116119c4576040517f08c379a00000000000000000000000000000000000000000000000000000000081526004016119bb906135be565b60405180910390fd5b62278d00816119d39190612ffa565b821115611a15576040517f08c379a0000000000000000000000000000000000000000000000000000000008152600401611a0c9061364c565b60405180910390fd5b61025881611a239190612ffa565b8211611a64576040517f08c379a0000000000000000000000000000000000000000000000000000000008152600401611a5b906136da565b60405180910390fd5b846001815111611aa9576040517f08c379a0000000000000000000000000000000000000000000000000000000008152600401611aa090613768565b60405180910390fd5b600b815110611aed576040517f08c379a0000000000000000000000000000000000000000000000000000000008152600401611ae4906137f6565b60405180910390fd5b8860016002811115611b0257611b01612014565b5b60015f8381526020019081526020015f206003015f9054906101000a900460ff166002811115611b3557611b34612014565b5b14611b75576040517f08c379a0000000000000000000000000000000000000000000000000000000008152600401611b6c90612a97565b60405180910390fd5b5f60405180608001604052808b81526020014281526020018a815260200189815250905060015f8c81526020019081526020015f2060050181908060018154018082558091505060019003905f5260205f2090600402015f909190919091505f820151815f019081611be79190612f2b565b5060208201518160010155604082015181600201556060820151816003019080519060200190611c18929190611dfb565b5050505050505050505050505050565b611c30611cac565b5f73ffffffffffffffffffffffffffffffffffffffff168173ffffffffffffffffffffffffffffffffffffffff1603611ca0575f6040517f1e4fbdf7000000000000000000000000000000000000000000000000000000008152600401611c979190612660565b60405180910390fd5b611ca981611d33565b50565b611cb4611df4565b73ffffffffffffffffffffffffffffffffffffffff16611cd2611248565b73ffffffffffffffffffffffffffffffffffffffff1614611d3157611cf5611df4565b6040517f118cdaa7000000000000000000000000000000000000000000000000000000008152600401611d289190612660565b60405180910390fd5b565b5f805f9054906101000a900473ffffffffffffffffffffffffffffffffffffffff169050815f806101000a81548173ffffffffffffffffffffffffffffffffffffffff021916908373ffffffffffffffffffffffffffffffffffffffff1602179055508173ffffffffffffffffffffffffffffffffffffffff168173ffffffffffffffffffffffffffffffffffffffff167f8be0079c531659141344cd1fd0a4f28419497f9722a3daafe3b4186f6b6457e060405160405180910390a35050565b5f33905090565b828054828255905f5260205f20908101928215611e41579160200282015b82811115611e40578251829081611e309190612f2b565b5091602001919060010190611e19565b5b509050611e4e9190611e52565b5090565b5b80821115611e71575f8181611e689190611e75565b50600101611e53565b5090565b508054611e819061298f565b5f825580601f10611e925750611eaf565b601f0160209004905f5260205f2090810190611eae9190611eb2565b5b50565b5b80821115611ec9575f815f905550600101611eb3565b5090565b5f604051905090565b5f80fd5b5f80fd5b5f819050919050565b611ef081611ede565b8114611efa575f80fd5b50565b5f81359050611f0b81611ee7565b92915050565b5f60208284031215611f2657611f25611ed6565b5b5f611f3384828501611efd565b91505092915050565b5f81519050919050565b5f82825260208201905092915050565b5f5b83811015611f73578082015181840152602081019050611f58565b5f8484015250505050565b5f601f19601f8301169050919050565b5f611f9882611f3c565b611fa28185611f46565b9350611fb2818560208601611f56565b611fbb81611f7e565b840191505092915050565b5f73ffffffffffffffffffffffffffffffffffffffff82169050919050565b5f611fef82611fc6565b9050919050565b611fff81611fe5565b82525050565b61200e81611ede565b82525050565b7f4e487b71000000000000000000000000000000000000000000000000000000005f52602160045260245ffd5b6003811061205257612051612014565b5b50565b5f81905061206282612041565b919050565b5f61207182612055565b9050919050565b61208181612067565b82525050565b5f6080820190508181035f83015261209f8187611f8e565b90506120ae6020830186611ff6565b6120bb6040830185612005565b6120c86060830184612078565b95945050505050565b5f81519050919050565b5f82825260208201905092915050565b5f819050602082019050919050565b61210381611fe5565b82525050565b5f61211483836120fa565b60208301905092915050565b5f602082019050919050565b5f612136826120d1565b61214081856120db565b935061214b836120eb565b805f5b8381101561217b5781516121628882612109565b975061216d83612120565b92505060018101905061214e565b5085935050505092915050565b5f6020820190508181035f8301526121a0818461212c565b905092915050565b5f81519050919050565b5f82825260208201905092915050565b5f819050602082019050919050565b5f82825260208201905092915050565b5f6121eb82611f3c565b6121f581856121d1565b9350612205818560208601611f56565b61220e81611f7e565b840191505092915050565b61222281611ede565b82525050565b5f81519050919050565b5f82825260208201905092915050565b5f819050602082019050919050565b5f61225c83836121e1565b905092915050565b5f602082019050919050565b5f61227a82612228565b6122848185612232565b93508360208202850161229685612242565b805f5b858110156122d157848403895281516122b28582612251565b94506122bd83612264565b925060208a01995050600181019050612299565b50829750879550505050505092915050565b5f608083015f8301518482035f8601526122fd82826121e1565b91505060208301516123126020860182612219565b5060408301516123256040860182612219565b506060830151848203606086015261233d8282612270565b9150508091505092915050565b5f61235583836122e3565b905092915050565b5f602082019050919050565b5f612373826121a8565b61237d81856121b2565b93508360208202850161238f856121c2565b805f5b858110156123ca57848403895281516123ab858261234a565b94506123b68361235d565b925060208a01995050600181019050612392565b50829750879550505050505092915050565b5f6020820190508181035f8301526123f48184612369565b905092915050565b61240581611fe5565b811461240f575f80fd5b50565b5f81359050612420816123fc565b92915050565b5f6020828403121561243b5761243a611ed6565b5b5f61244884828501612412565b91505092915050565b5f8115159050919050565b61246581612451565b82525050565b5f60208201905061247e5f83018461245c565b92915050565b5f80fd5b5f80fd5b7f4e487b71000000000000000000000000000000000000000000000000000000005f52604160045260245ffd5b6124c282611f7e565b810181811067ffffffffffffffff821117156124e1576124e061248c565b5b80604052505050565b5f6124f3611ecd565b90506124ff82826124b9565b919050565b5f67ffffffffffffffff82111561251e5761251d61248c565b5b61252782611f7e565b9050602081019050919050565b828183375f83830152505050565b5f61255461254f84612504565b6124ea565b9050828152602081018484840111156125705761256f612488565b5b61257b848285612534565b509392505050565b5f82601f83011261259757612596612484565b5b81356125a7848260208601612542565b91505092915050565b5f602082840312156125c5576125c4611ed6565b5b5f82013567ffffffffffffffff8111156125e2576125e1611eda565b5b6125ee84828501612583565b91505092915050565b5f805f6060848603121561260e5761260d611ed6565b5b5f61261b86828701611efd565b935050602061262c86828701611efd565b925050604061263d86828701611efd565b9150509250925092565b5f60208201905061265a5f830184612005565b92915050565b5f6020820190506126735f830184611ff6565b92915050565b5f805f606084860312156126905761268f611ed6565b5b5f61269d86828701611efd565b93505060206126ae86828701611efd565b92505060406126bf86828701612412565b9150509250925092565b5f80604083850312156126df576126de611ed6565b5b5f6126ec85828601611efd565b92505060206126fd85828601611efd565b9150509250929050565b5f81519050919050565b5f82825260208201905092915050565b5f819050602082019050919050565b5f61273b8383612219565b60208301905092915050565b5f602082019050919050565b5f61275d82612707565b6127678185612711565b935061277283612721565b805f5b838110156127a25781516127898882612730565b975061279483612747565b925050600181019050612775565b5085935050505092915050565b5f6040820190508181035f8301526127c7818561212c565b905081810360208301526127db8184612753565b90509392505050565b5f67ffffffffffffffff8211156127fe576127fd61248c565b5b602082029050602081019050919050565b5f80fd5b5f612825612820846127e4565b6124ea565b905080838252602082019050602084028301858111156128485761284761280f565b5b835b8181101561288f57803567ffffffffffffffff81111561286d5761286c612484565b5b80860161287a8982612583565b8552602085019450505060208101905061284a565b5050509392505050565b5f82601f8301126128ad576128ac612484565b5b81356128bd848260208601612813565b91505092915050565b5f805f80608085870312156128de576128dd611ed6565b5b5f6128eb87828801611efd565b945050602085013567ffffffffffffffff81111561290c5761290b611eda565b5b61291887828801612583565b935050604061292987828801611efd565b925050606085013567ffffffffffffffff81111561294a57612949611eda565b5b61295687828801612899565b91505092959194509250565b7f4e487b71000000000000000000000000000000000000000000000000000000005f52602260045260245ffd5b5f60028204905060018216806129a657607f821691505b6020821081036129b9576129b8612962565b5b50919050565b7f4f7267616e697a6174696f6e2077697468207468697320496420646f6573206e5f8201527f6f74206578697374000000000000000000000000000000000000000000000000602082015250565b5f612a19602883611f46565b9150612a24826129bf565b604082019050919050565b5f6020820190508181035f830152612a4681612a0d565b9050919050565b7f4f7267616e697a6174696f6e206973206e6f7420617070726f766564000000005f82015250565b5f612a81601c83611f46565b9150612a8c82612a4d565b602082019050919050565b5f6020820190508181035f830152612aae81612a75565b9050919050565b7f4e487b71000000000000000000000000000000000000000000000000000000005f52603260045260245ffd5b7f4e487b71000000000000000000000000000000000000000000000000000000005f52601160045260245ffd5b5f612b1982611ede565b91507fffffffffffffffffffffffffffffffffffffffffffffffffffffffffffffffff8203612b4b57612b4a612ae2565b5b600182019050919050565b7f596f752061726520616c72656164792061206d656d626572206f6620746869735f8201527f206f7267616e697a6174696f6e00000000000000000000000000000000000000602082015250565b5f612bb0602d83611f46565b9150612bbb82612b56565b604082019050919050565b5f6020820190508181035f830152612bdd81612ba4565b9050919050565b7f6f6e6c7920756e617070726f766564206f7267616e697a6174696f6e206973205f8201527f617070726f766564000000000000000000000000000000000000000000000000602082015250565b5f612c3e602883611f46565b9150612c4982612be4565b604082019050919050565b5f6020820190508181035f830152612c6b81612c32565b9050919050565b7f756e617070726f766564206f7267616e697a6174696f6e2063616e6e6f7420625f8201527f652062616e6e6564000000000000000000000000000000000000000000000000602082015250565b5f612ccc602883611f46565b9150612cd782612c72565b604082019050919050565b5f6020820190508181035f830152612cf981612cc0565b9050919050565b7f596f752063616e6e6f7420637265617465206d6f7265207468616e206f6e65205f8201527f6f726967616e697a6174696f6e00000000000000000000000000000000000000602082015250565b5f612d5a602d83611f46565b9150612d6582612d00565b604082019050919050565b5f6020820190508181035f830152612d8781612d4e565b9050919050565b5f819050815f5260205f209050919050565b5f6020601f8301049050919050565b5f82821b905092915050565b5f60088302612dea7fffffffffffffffffffffffffffffffffffffffffffffffffffffffffffffffff82612daf565b612df48683612daf565b95508019841693508086168417925050509392505050565b5f819050919050565b5f612e2f612e2a612e2584611ede565b612e0c565b611ede565b9050919050565b5f819050919050565b612e4883612e15565b612e5c612e5482612e36565b848454612dbb565b825550505050565b5f90565b612e70612e64565b612e7b818484612e3f565b505050565b5b81811015612e9e57612e935f82612e68565b600181019050612e81565b5050565b601f821115612ee357612eb481612d8e565b612ebd84612da0565b81016020851015612ecc578190505b612ee0612ed885612da0565b830182612e80565b50505b505050565b5f82821c905092915050565b5f612f035f1984600802612ee8565b1980831691505092915050565b5f612f1b8383612ef4565b9150826002028217905092915050565b612f3482611f3c565b67ffffffffffffffff811115612f4d57612f4c61248c565b5b612f57825461298f565b612f62828285612ea2565b5f60209050601f831160018114612f93575f8415612f81578287015190505b612f8b8582612f10565b865550612ff2565b601f198416612fa186612d8e565b5f5b82811015612fc857848901518255600182019150602085019450602081019050612fa3565b86831015612fe55784890151612fe1601f891682612ef4565b8355505b6001600288020188555050505b505050505050565b5f61300482611ede565b915061300f83611ede565b925082820190508082111561302757613026612ae2565b5b92915050565b7f6f776e6572736869702072656e6e6f756e6365206973206e6f7420616c6c6f775f8201527f6564000000000000000000000000000000000000000000000000000000000000602082015250565b5f613087602283611f46565b91506130928261302d565b604082019050919050565b5f6020820190508181035f8301526130b48161307b565b9050919050565b7f596f7520617265206e6f742061206d656d626572206f662074686973206f72675f8201527f616e697a6174696f6e0000000000000000000000000000000000000000000000602082015250565b5f613115602983611f46565b9150613120826130bb565b604082019050919050565b5f6020820190508181035f83015261314281613109565b9050919050565b7f566f7465204964206e6f742076616c69640000000000000000000000000000005f82015250565b5f61317d601183611f46565b915061318882613149565b602082019050919050565b5f6020820190508181035f8301526131aa81613171565b9050919050565b7f566f746520686173206265656e2066696e6973686564000000000000000000005f82015250565b5f6131e5601683611f46565b91506131f0826131b1565b602082019050919050565b5f6020820190508181035f830152613212816131d9565b9050919050565b7f30206d65616e7320766f7465206e6f742073656c65637465642c206f6e6365205f8201527f73656c65637465642063616e6e6f74206265206368616e676564000000000000602082015250565b5f613273603a83611f46565b915061327e82613219565b604082019050919050565b5f6020820190508181035f8301526132a081613267565b9050919050565b7f696e76616c6964206f7074696f6e20496e6465780000000000000000000000005f82015250565b5f6132db601483611f46565b91506132e6826132a7565b602082019050919050565b5f6020820190508181035f830152613308816132cf565b9050919050565b5f6060820190506133225f830186612005565b61332f6020830185612005565b61333c6040830184612005565b949350505050565b7f696e636f727265637420696e64657820666f72206d656d6265722c20747279205f8201527f616761696e000000000000000000000000000000000000000000000000000000602082015250565b5f61339e602583611f46565b91506133a982613344565b604082019050919050565b5f6020820190508181035f8301526133cb81613392565b9050919050565b5f6133dc82611ede565b91506133e783611ede565b92508282039050818111156133ff576133fe612ae2565b5b92915050565b7f4e487b71000000000000000000000000000000000000000000000000000000005f52603160045260245ffd5b7f6f6e6c792062616e6e6564206f7267616e697a6174696f6e2063616e206265205f8201527f756e42616e6e6564000000000000000000000000000000000000000000000000602082015250565b5f61348c602883611f46565b915061349782613432565b604082019050919050565b5f6020820190508181035f8301526134b981613480565b9050919050565b7f6f6e6c79206f7267616e697a6174696f6e206f776e65722063616e20646f20745f8201527f68697320616374696f6e2e000000000000000000000000000000000000000000602082015250565b5f61351a602b83611f46565b9150613525826134c0565b604082019050919050565b5f6020820190508181035f8301526135478161350e565b9050919050565b7f566f746520656e642074696d652063616e6e6f74206d65206c657373207468615f8201527f6e2063757272656e742074696d65200000000000000000000000000000000000602082015250565b5f6135a8602f83611f46565b91506135b38261354e565b604082019050919050565b5f6020820190508181035f8301526135d58161359c565b9050919050565b7f566f74696e67206475726174696e672063616e6e6f74206265206d6f726520745f8201527f68616e2033302064617973000000000000000000000000000000000000000000602082015250565b5f613636602b83611f46565b9150613641826135dc565b604082019050919050565b5f6020820190508181035f8301526136638161362a565b9050919050565b7f566f74696e67206475726174696f6e206d7573742062652061746c65617374205f8201527f3130206d696e7574657320000000000000000000000000000000000000000000602082015250565b5f6136c4602b83611f46565b91506136cf8261366a565b604082019050919050565b5f6020820190508181035f8301526136f1816136b8565b9050919050565b7f70726f76696465206d6f7265207468616e203120766f7465206f7074696f6e735f8201527f20666f7220766f74650000000000000000000000000000000000000000000000602082015250565b5f613752602983611f46565b915061375d826136f8565b604082019050919050565b5f6020820190508181035f83015261377f81613746565b9050919050565b7f6d617820313020766f7465206f7074696f6e732061726520737570706f7274655f8201527f6400000000000000000000000000000000000000000000000000000000000000602082015250565b5f6137e0602183611f46565b91506137eb82613786565b604082019050919050565b5f6020820190508181035f83015261380d816137d4565b905091905056fea26469706673582212200151a74b0a802f56d2e21ded2d28789aa8854d2642f7ae5f6aaeec760153efd064736f6c63430008140033",
  "immutableReferences": {},
  "source": "// SPDX-License-Identifier: MIT\r\npragma solidity ^0.8.0;\r\n\r\nimport \"@openzeppelin/contracts/access/Ownable.sol\";\r\n\r\ncontract VotingSystem is Ownable {\r\n    constructor() Ownable(msg.sender) {}\r\n\r\n    enum organizationStatus {\r\n        notApproved,\r\n        approved,\r\n        banned\r\n    }\r\n\r\n    struct Vote {\r\n        string name;\r\n        uint256 startDate;\r\n        uint256 endDate;\r\n        string[] options;\r\n    }\r\n\r\n    struct Organization {\r\n        string name;\r\n        address owner;\r\n        uint256 id;\r\n        organizationStatus status;\r\n        address[] members;\r\n        Vote[] votes;\r\n    }\r\n\r\n    mapping(uint256 => Organization) public Organizations;\r\n    mapping(address => bool) public existingOwners;\r\n    mapping(uint256 => mapping(uint256 => mapping(address => uint)))\r\n        public VotesRecord; // 0 means not voted yet\r\n    //   0                  0                  0x0000      0\r\n\r\n    uint256 public nextOrgId;\r\n\r\n    modifier notAnExistingOwner() {\r\n        require(\r\n            !existingOwners[msg.sender],\r\n            \"You cannot create more than one origanization\"\r\n        );\r\n        _;\r\n    }\r\n\r\n    modifier onlyOrganizationOwner(uint256 OrganizationId) {\r\n        require(\r\n            Organizations[OrganizationId].owner == msg.sender,\r\n            \"only organization owner can do this action.\"\r\n        );\r\n        _;\r\n    }\r\n\r\n    modifier checkVoteDuration(uint256 endDate) {\r\n        uint256 currentTime = block.timestamp;\r\n        require(\r\n            endDate > currentTime,\r\n            \"Vote end time cannot me less than current time \"\r\n        );\r\n        require(\r\n            endDate <= currentTime + 30 days,\r\n            \"Voting durating cannot be more than 30 days\"\r\n        );\r\n        require(\r\n            endDate > currentTime + 10 minutes,\r\n            \"Voting duration must be atleast 10 minutes \"\r\n        );\r\n        _;\r\n    }\r\n\r\n    modifier validateNewOptions(string[] memory options) {\r\n        require(\r\n            options.length > 1,\r\n            \"provide more than 1 vote options for vote\"\r\n        );\r\n        require(options.length < 11, \"max 10 vote options are supported\");\r\n        _;\r\n    }\r\n\r\n    modifier isMemberofOrganization(uint organizationId) {\r\n        bool isMember = false;\r\n        for (\r\n            uint i = 0;\r\n            i < Organizations[organizationId].members.length;\r\n            i++\r\n        ) {\r\n            if (Organizations[organizationId].members[i] == msg.sender) {\r\n                isMember = true;\r\n                break;\r\n            }\r\n        }\r\n        require(isMember, \"You are not a member of this organization\");\r\n        _;\r\n    }\r\n\r\n    modifier isNotMemberofOrganization(uint organizationId) {\r\n        bool isMember = false;\r\n        for (\r\n            uint i = 0;\r\n            i < Organizations[organizationId].members.length;\r\n            i++\r\n        ) {\r\n            if (Organizations[organizationId].members[i] == msg.sender) {\r\n                isMember = true;\r\n                break;\r\n            }\r\n        }\r\n        require(!isMember, \"You are already a member of this organization\");\r\n        _;\r\n    }\r\n\r\n    modifier OrganizationActive(uint OrganizationId) {\r\n        require(\r\n            Organizations[OrganizationId].status == organizationStatus.approved,\r\n            \"Organization is not approved\"\r\n        );\r\n        _;\r\n    }\r\n\r\n    modifier VoteActive(uint OrganizationId, uint voteId) {\r\n        require(\r\n            Organizations[OrganizationId].votes.length > voteId,\r\n            \"Vote Id not valid\"\r\n        );\r\n        require(\r\n            Organizations[OrganizationId].votes[voteId].endDate >\r\n                block.timestamp,\r\n            \"Vote has been finished\"\r\n        );\r\n        _;\r\n    }\r\n\r\n    modifier validVoteOption(\r\n        uint OrganizationId,\r\n        uint voteId,\r\n        uint optionNr\r\n    ) {\r\n        require(\r\n            optionNr != 0,\r\n            \"0 means vote not selected, once selected cannot be changed\"\r\n        );\r\n        require(\r\n            Organizations[OrganizationId].votes[voteId].options.length >=\r\n                optionNr,\r\n            \"invalid option Index\"\r\n        );\r\n        _;\r\n    }\r\n\r\n    modifier OrganizationExists(uint organizationId) {\r\n        require(\r\n            organizationId < nextOrgId,\r\n            \"Organization with this Id does not exist\"\r\n        );\r\n        _;\r\n    }\r\n\r\n    event organizationCreated(address indexed organizationOwner, uint organizationId);\r\n    event voteSubmitted(address indexed candidate, uint voteId, uint OrganizationId, uint option);\r\n\r\n    function renounceOwnership() public view override onlyOwner {\r\n        revert(\"ownership rennounce is not allowed\");\r\n    }\r\n\r\n    function CreateOrganization(string memory name) public notAnExistingOwner {\r\n        Organization storage newOrganization = Organizations[nextOrgId];\r\n        newOrganization.name = name;\r\n        newOrganization.owner = msg.sender;\r\n        newOrganization.id = nextOrgId;\r\n        newOrganization.status = organizationStatus.notApproved;\r\n        emit organizationCreated(msg.sender, nextOrgId);\r\n        nextOrgId += 1;\r\n        existingOwners[msg.sender] = true;\r\n    }\r\n\r\n    function createVote(\r\n        uint256 OrganizationId,\r\n        string memory name,\r\n        uint256 endDate,\r\n        string[] memory options\r\n    )\r\n        public\r\n        OrganizationExists(OrganizationId)\r\n        onlyOrganizationOwner(OrganizationId)\r\n        checkVoteDuration(endDate)\r\n        validateNewOptions(options)\r\n        OrganizationActive(OrganizationId)\r\n    {\r\n        Vote memory newVote = Vote(name, block.timestamp, endDate, options);\r\n        Organizations[OrganizationId].votes.push(newVote);\r\n    }\r\n\r\n    function sumbitVote(\r\n        uint OrganizationId,\r\n        uint voteId,\r\n        uint optionNr\r\n    )\r\n        public\r\n        OrganizationExists(OrganizationId)\r\n        isMemberofOrganization(OrganizationId)\r\n        OrganizationActive(OrganizationId)\r\n        VoteActive(OrganizationId, voteId)\r\n        validVoteOption(OrganizationId, voteId, optionNr)\r\n    {\r\n        VotesRecord[OrganizationId][voteId][msg.sender] = optionNr;\r\n        emit voteSubmitted(msg.sender, voteId, OrganizationId, optionNr);\r\n    }\r\n\r\n    function approveOrganization(\r\n        uint OrganizationId\r\n    ) public onlyOwner OrganizationExists(OrganizationId) {\r\n        require(\r\n            Organizations[OrganizationId].status ==\r\n                organizationStatus.notApproved,\r\n            \"only unapproved organization is approved\"\r\n        );\r\n        Organizations[OrganizationId].status = organizationStatus.approved;\r\n    }\r\n\r\n    function BanOrganization(\r\n        uint OrganizationId\r\n    ) public onlyOwner OrganizationExists(OrganizationId) {\r\n        require(\r\n            Organizations[OrganizationId].status !=\r\n                organizationStatus.notApproved,\r\n            \"unapproved organization cannot be banned\"\r\n        );\r\n        Organizations[OrganizationId].status = organizationStatus.banned;\r\n    }\r\n\r\n    function unBanOrganization(\r\n        uint OrganizationId\r\n    ) public onlyOwner OrganizationExists(OrganizationId) {\r\n        require(\r\n            Organizations[OrganizationId].status == organizationStatus.banned,\r\n            \"only banned organization can be unBanned\"\r\n        );\r\n        Organizations[OrganizationId].status = organizationStatus.approved;\r\n    }\r\n\r\n    function becomeMember(\r\n        uint OrganizationId\r\n    )\r\n        public\r\n        OrganizationExists(OrganizationId)\r\n        OrganizationActive(OrganizationId)\r\n        isNotMemberofOrganization(OrganizationId)\r\n    {\r\n        Organizations[OrganizationId].members.push(msg.sender);\r\n    }\r\n\r\n    function revokeMembership(\r\n        uint OrganizationId,\r\n        uint memberIndex\r\n    )\r\n        public\r\n        OrganizationExists(OrganizationId)\r\n        isMemberofOrganization(OrganizationId)\r\n    {\r\n        require(\r\n            Organizations[OrganizationId].members[memberIndex] == msg.sender,\r\n            \"incorrect index for member, try again\"\r\n        );\r\n        uint arrLen = Organizations[OrganizationId].members.length;\r\n        Organizations[OrganizationId].members[memberIndex] = Organizations[\r\n            OrganizationId\r\n        ].members[arrLen - 1];\r\n        Organizations[OrganizationId].members.pop();\r\n    }\r\n\r\n    function getAllVoteCampaigns(\r\n        uint OrganizationId\r\n    ) public view OrganizationExists(OrganizationId) returns (Vote[] memory) {\r\n        return Organizations[OrganizationId].votes;\r\n    }\r\n\r\n    function getAllOrganizationMembers(\r\n        uint OrganizationId\r\n    ) public view OrganizationExists(OrganizationId) returns (address[] memory) {\r\n        return Organizations[OrganizationId].members;\r\n    }\r\n\r\n    function getAVoteSubmissions(uint OrganizationId, uint voteId) public view returns(address[] memory, uint[] memory)\r\n    {\r\n        address[] memory members = Organizations[OrganizationId].members;\r\n        uint[] memory res = new uint[](members.length);\r\n        for (uint i = 0; i < members.length; i++){\r\n            res[i] =  VotesRecord[OrganizationId][voteId][members[i]];\r\n        }\r\n        return (members, res);\r\n    }\r\n}\r\n",
  "sourcePath": "E:\\New folder (2)\\Web3-Projects-Solidity-and-Solana-\\Decentralized Voting System\\truffle\\contracts\\VotingSystem.sol",
  "compiler": {
    "name": "solc",
    "version": "0.8.20+commit.a1b79de6.Emscripten.clang"
  },
  "schemaVersion": "3.4.16",
  "updatedAt": "2024-08-28T09:30:58.383Z",
  "networkType": "ethereum",
  "devdoc": {
    "errors": {
      "OwnableInvalidOwner(address)": [
        {
          "details": "The owner is not a valid owner account. (eg. `address(0)`)"
        }
      ],
      "OwnableUnauthorizedAccount(address)": [
        {
          "details": "The caller account is not authorized to perform an operation."
        }
      ]
    },
    "kind": "dev",
    "methods": {
      "owner()": {
        "details": "Returns the address of the current owner."
      },
      "renounceOwnership()": {
        "details": "Leaves the contract without owner. It will not be possible to call `onlyOwner` functions. Can only be called by the current owner. NOTE: Renouncing ownership will leave the contract without an owner, thereby disabling any functionality that is only available to the owner."
      },
      "transferOwnership(address)": {
        "details": "Transfers ownership of the contract to a new account (`newOwner`). Can only be called by the current owner."
      }
    },
    "version": 1
  },
  "userdoc": {
    "kind": "user",
    "methods": {},
    "version": 1
  }
}