{
  "contractName": "Item",
  "abi": [
    {
      "inputs": [
        {
          "internalType": "string",
          "name": "identifier",
          "type": "string"
        },
        {
          "internalType": "uint256",
          "name": "price",
          "type": "uint256"
        },
        {
          "internalType": "uint256",
          "name": "index",
          "type": "uint256"
        },
        {
          "internalType": "contract Item_Manager",
          "name": "item_manager",
          "type": "address"
        }
      ],
      "stateMutability": "nonpayable",
      "type": "constructor"
    },
    {
      "inputs": [],
      "name": "_identifier",
      "outputs": [
        {
          "internalType": "string",
          "name": "",
          "type": "string"
        }
      ],
      "stateMutability": "view",
      "type": "function"
    },
    {
      "inputs": [],
      "name": "_priceInWei",
      "outputs": [
        {
          "internalType": "uint256",
          "name": "",
          "type": "uint256"
        }
      ],
      "stateMutability": "view",
      "type": "function"
    },
    {
      "stateMutability": "payable",
      "type": "receive"
    }
  ],
  "bytecode": "0x608060405234801562000010575f80fd5b5060405162000a3938038062000a398339818101604052810190620000369190620002d0565b835f90816200004691906200058c565b5082600181905550816002819055508060035f6101000a81548173ffffffffffffffffffffffffffffffffffffffff021916908373ffffffffffffffffffffffffffffffffffffffff1602179055505050505062000670565b5f604051905090565b5f80fd5b5f80fd5b5f80fd5b5f80fd5b5f601f19601f8301169050919050565b7f4e487b71000000000000000000000000000000000000000000000000000000005f52604160045260245ffd5b6200010082620000b8565b810181811067ffffffffffffffff82111715620001225762000121620000c8565b5b80604052505050565b5f620001366200009f565b9050620001448282620000f5565b919050565b5f67ffffffffffffffff821115620001665762000165620000c8565b5b6200017182620000b8565b9050602081019050919050565b5f5b838110156200019d57808201518184015260208101905062000180565b5f8484015250505050565b5f620001be620001b88462000149565b6200012b565b905082815260208101848484011115620001dd57620001dc620000b4565b5b620001ea8482856200017e565b509392505050565b5f82601f830112620002095762000208620000b0565b5b81516200021b848260208601620001a8565b91505092915050565b5f819050919050565b620002388162000224565b811462000243575f80fd5b50565b5f8151905062000256816200022d565b92915050565b5f73ffffffffffffffffffffffffffffffffffffffff82169050919050565b5f62000287826200025c565b9050919050565b5f6200029a826200027b565b9050919050565b620002ac816200028e565b8114620002b7575f80fd5b50565b5f81519050620002ca81620002a1565b92915050565b5f805f8060808587031215620002eb57620002ea620000a8565b5b5f85015167ffffffffffffffff8111156200030b576200030a620000ac565b5b6200031987828801620001f2565b94505060206200032c8782880162000246565b93505060406200033f8782880162000246565b92505060606200035287828801620002ba565b91505092959194509250565b5f81519050919050565b7f4e487b71000000000000000000000000000000000000000000000000000000005f52602260045260245ffd5b5f6002820490506001821680620003ad57607f821691505b602082108103620003c357620003c262000368565b5b50919050565b5f819050815f5260205f209050919050565b5f6020601f8301049050919050565b5f82821b905092915050565b5f60088302620004277fffffffffffffffffffffffffffffffffffffffffffffffffffffffffffffffff82620003ea565b620004338683620003ea565b95508019841693508086168417925050509392505050565b5f819050919050565b5f620004746200046e620004688462000224565b6200044b565b62000224565b9050919050565b5f819050919050565b6200048f8362000454565b620004a76200049e826200047b565b848454620003f6565b825550505050565b5f90565b620004bd620004af565b620004ca81848462000484565b505050565b5b81811015620004f157620004e55f82620004b3565b600181019050620004d0565b5050565b601f82111562000540576200050a81620003c9565b6200051584620003db565b8101602085101562000525578190505b6200053d6200053485620003db565b830182620004cf565b50505b505050565b5f82821c905092915050565b5f620005625f198460080262000545565b1980831691505092915050565b5f6200057c838362000551565b9150826002028217905092915050565b62000597826200035e565b67ffffffffffffffff811115620005b357620005b2620000c8565b5b620005bf825462000395565b620005cc828285620004f5565b5f60209050601f83116001811462000602575f8415620005ed578287015190505b620005f985826200056f565b86555062000668565b601f1984166200061286620003c9565b5f5b828110156200063b5784890151825560018201915060208501945060208101905062000614565b868310156200065b578489015162000657601f89168262000551565b8355505b6001600288020188555050505b505050505050565b6103bb806200067e5f395ff3fe60806040526004361061002c575f3560e01c8063babb3bcd14610100578063ec7c19c21461012a576100fc565b366100fc573460015414610075576040517f08c379a000000000000000000000000000000000000000000000000000000000815260040161006c9061023f565b60405180910390fd5b60035f9054906101000a900473ffffffffffffffffffffffffffffffffffffffff1673ffffffffffffffffffffffffffffffffffffffff1663800fb83f6002546040518263ffffffff1660e01b81526004016100d19190610275565b5f604051808303815f87803b1580156100e8575f80fd5b505af11580156100fa573d5f803e3d5ffd5b005b5f80fd5b34801561010b575f80fd5b50610114610154565b6040516101219190610275565b60405180910390f35b348015610135575f80fd5b5061013e61015a565b60405161014b9190610308565b60405180910390f35b60015481565b5f805461016690610355565b80601f016020809104026020016040519081016040528092919081815260200182805461019290610355565b80156101dd5780601f106101b4576101008083540402835291602001916101dd565b820191905f5260205f20905b8154815290600101906020018083116101c057829003601f168201915b505050505081565b5f82825260208201905092915050565b7f6f6e6c7920657861637420616d6f756e742069732061636365707465640000005f82015250565b5f610229601d836101e5565b9150610234826101f5565b602082019050919050565b5f6020820190508181035f8301526102568161021d565b9050919050565b5f819050919050565b61026f8161025d565b82525050565b5f6020820190506102885f830184610266565b92915050565b5f81519050919050565b5f5b838110156102b557808201518184015260208101905061029a565b5f8484015250505050565b5f601f19601f8301169050919050565b5f6102da8261028e565b6102e481856101e5565b93506102f4818560208601610298565b6102fd816102c0565b840191505092915050565b5f6020820190508181035f83015261032081846102d0565b905092915050565b7f4e487b71000000000000000000000000000000000000000000000000000000005f52602260045260245ffd5b5f600282049050600182168061036c57607f821691505b60208210810361037f5761037e610328565b5b5091905056fea26469706673582212204a3e11884f282f94b66743ca0e4fef812e2d2aad4bbf2cff6d8cb6a921819cfc64736f6c63430008140033",
  "immutableReferences": {},
  "source": "\r\n// SPDX-License-Identifier: GPL-3.0\r\n\r\npragma solidity ^0.8.20;\r\n\r\nimport \"./Item_Manager.sol\";\r\n\r\ncontract Item {\r\n    string public _identifier;\r\n    uint256 public _priceInWei;\r\n    uint _index;\r\n    Item_Manager _manager;\r\n\r\n    constructor(string memory identifier, uint256 price, uint index, Item_Manager item_manager) {\r\n        _identifier = identifier;\r\n        _priceInWei = price;\r\n        _index = index;\r\n        _manager = item_manager;\r\n    }\r\n\r\n    receive() external payable {\r\n        require(_priceInWei == msg.value, \"only exact amount is accepted\");\r\n        Item_Manager(_manager).triggerPayment(_index);\r\n\r\n    }\r\n}\r\n",
  "sourcePath": "E:\\New folder (2)\\Web3-Projects-Solidity-and-Solana-\\Event TriggersSupply Chain Example With Truffle and React box\\truffle\\contracts\\Item.sol",
  "compiler": {
    "name": "solc",
    "version": "0.8.20+commit.a1b79de6.Emscripten.clang"
  },
  "schemaVersion": "3.4.16",
  "updatedAt": "2024-08-15T07:42:15.220Z",
  "devdoc": {
    "kind": "dev",
    "methods": {},
    "version": 1
  },
  "userdoc": {
    "kind": "user",
    "methods": {},
    "version": 1
  }
}