{
  "contractName": "Item_Manager",
  "abi": [
    {
      "inputs": [],
      "stateMutability": "nonpayable",
      "type": "constructor"
    },
    {
      "inputs": [
        {
          "internalType": "address",
          "name": "owner",
          "type": "address"
        }
      ],
      "name": "OwnableInvalidOwner",
      "type": "error"
    },
    {
      "inputs": [
        {
          "internalType": "address",
          "name": "account",
          "type": "address"
        }
      ],
      "name": "OwnableUnauthorizedAccount",
      "type": "error"
    },
    {
      "anonymous": false,
      "inputs": [
        {
          "indexed": true,
          "internalType": "address",
          "name": "previousOwner",
          "type": "address"
        },
        {
          "indexed": true,
          "internalType": "address",
          "name": "newOwner",
          "type": "address"
        }
      ],
      "name": "OwnershipTransferred",
      "type": "event"
    },
    {
      "anonymous": false,
      "inputs": [
        {
          "indexed": false,
          "internalType": "uint256",
          "name": "index",
          "type": "uint256"
        },
        {
          "indexed": false,
          "internalType": "uint256",
          "name": "step",
          "type": "uint256"
        },
        {
          "indexed": false,
          "internalType": "address",
          "name": "_address",
          "type": "address"
        }
      ],
      "name": "SupplyChainStep",
      "type": "event"
    },
    {
      "inputs": [],
      "name": "index",
      "outputs": [
        {
          "internalType": "uint256",
          "name": "",
          "type": "uint256"
        }
      ],
      "stateMutability": "view",
      "type": "function",
      "constant": true
    },
    {
      "inputs": [
        {
          "internalType": "uint256",
          "name": "",
          "type": "uint256"
        }
      ],
      "name": "items",
      "outputs": [
        {
          "internalType": "enum Item_Manager.SupplyChainSteps",
          "name": "_step",
          "type": "uint8"
        },
        {
          "internalType": "string",
          "name": "_identifier",
          "type": "string"
        },
        {
          "internalType": "contract Item",
          "name": "_item",
          "type": "address"
        }
      ],
      "stateMutability": "view",
      "type": "function",
      "constant": true
    },
    {
      "inputs": [],
      "name": "owner",
      "outputs": [
        {
          "internalType": "address",
          "name": "",
          "type": "address"
        }
      ],
      "stateMutability": "view",
      "type": "function",
      "constant": true
    },
    {
      "inputs": [],
      "name": "renounceOwnership",
      "outputs": [],
      "stateMutability": "nonpayable",
      "type": "function"
    },
    {
      "inputs": [
        {
          "internalType": "address",
          "name": "newOwner",
          "type": "address"
        }
      ],
      "name": "transferOwnership",
      "outputs": [],
      "stateMutability": "nonpayable",
      "type": "function"
    },
    {
      "inputs": [
        {
          "internalType": "string",
          "name": "identifier",
          "type": "string"
        },
        {
          "internalType": "uint256",
          "name": "price",
          "type": "uint256"
        }
      ],
      "name": "createItem",
      "outputs": [],
      "stateMutability": "nonpayable",
      "type": "function"
    },
    {
      "inputs": [
        {
          "internalType": "uint256",
          "name": "_index",
          "type": "uint256"
        }
      ],
      "name": "triggerPayment",
      "outputs": [],
      "stateMutability": "payable",
      "type": "function",
      "payable": true
    },
    {
      "inputs": [
        {
          "internalType": "uint256",
          "name": "_index",
          "type": "uint256"
        }
      ],
      "name": "triggerDelivery",
      "outputs": [],
      "stateMutability": "nonpayable",
      "type": "function"
    }
  ],
  "bytecode": "0x608060405234801562000010575f80fd5b50335f73ffffffffffffffffffffffffffffffffffffffff168173ffffffffffffffffffffffffffffffffffffffff160362000085575f6040517f1e4fbdf70000000000000000000000000000000000000000000000000000000081526004016200007c9190620001a1565b60405180910390fd5b62000096816200009d60201b60201c565b50620001bc565b5f805f9054906101000a900473ffffffffffffffffffffffffffffffffffffffff169050815f806101000a81548173ffffffffffffffffffffffffffffffffffffffff021916908373ffffffffffffffffffffffffffffffffffffffff1602179055508173ffffffffffffffffffffffffffffffffffffffff168173ffffffffffffffffffffffffffffffffffffffff167f8be0079c531659141344cd1fd0a4f28419497f9722a3daafe3b4186f6b6457e060405160405180910390a35050565b5f73ffffffffffffffffffffffffffffffffffffffff82169050919050565b5f62000189826200015e565b9050919050565b6200019b816200017d565b82525050565b5f602082019050620001b65f83018462000190565b92915050565b611e6180620001ca5f395ff3fe60806040526004361062000085575f3560e01c80638da5cb5b11620000545780638da5cb5b146200011e578063bfb231d2146200014d578063cd31831e1462000192578063f2fde38b14620001bf5762000085565b80632986c0e51462000089578063715018a614620000b8578063800fb83f14620000d15780638c55174214620000f1575b5f80fd5b34801562000095575f80fd5b50620000a0620001ec565b604051620000af919062000a19565b60405180910390f35b348015620000c4575f80fd5b50620000cf620001f2565b005b620000ef6004803603810190620000e9919062000a74565b62000209565b005b348015620000fd575f80fd5b506200011c600480360381019062000116919062000bfc565b620003f1565b005b3480156200012a575f80fd5b50620001356200058a565b60405162000144919062000ca3565b60405180910390f35b34801562000159575f80fd5b5062000178600480360381019062000172919062000a74565b620005b1565b604051620001899392919062000e25565b60405180910390f35b3480156200019e575f80fd5b50620001bd6004803603810190620001b7919062000a74565b62000690565b005b348015620001cb575f80fd5b50620001ea6004803603810190620001e4919062000e96565b6200080e565b005b60025481565b620001fc62000899565b620002075f62000929565b565b5f60015f8381526020019081526020015f206002015f9054906101000a900473ffffffffffffffffffffffffffffffffffffffff1690503373ffffffffffffffffffffffffffffffffffffffff168173ffffffffffffffffffffffffffffffffffffffff1614620002b1576040517f08c379a0000000000000000000000000000000000000000000000000000000008152600401620002a89062000f3a565b60405180910390fd5b5f6002811115620002c757620002c662000cbe565b5b60015f8481526020019081526020015f205f015f9054906101000a900460ff166002811115620002fc57620002fb62000cbe565b5b146200033f576040517f08c379a0000000000000000000000000000000000000000000000000000000008152600401620003369062000fa8565b60405180910390fd5b6001805f8481526020019081526020015f205f015f6101000a81548160ff0219169083600281111562000377576200037662000cbe565b5b02179055507fa4035636e99f06b7651a604c1019fa4e8779fe68ef27eeb74dff2de348f6199b8260015f8581526020019081526020015f205f015f9054906101000a900460ff166002811115620003d357620003d262000cbe565b5b83604051620003e59392919062000fc8565b60405180910390a15050565b620003fb62000899565b5f8282600254306040516200041090620009f1565b6200041f94939291906200103a565b604051809103905ff08015801562000439573d5f803e3d5ffd5b5090505f60015f60025481526020019081526020015f205f015f6101000a81548160ff0219169083600281111562000476576200047562000cbe565b5b02179055508260015f60025481526020019081526020015f206001019081620004a09190620012a7565b508060015f60025481526020019081526020015f206002015f6101000a81548173ffffffffffffffffffffffffffffffffffffffff021916908373ffffffffffffffffffffffffffffffffffffffff1602179055507fa4035636e99f06b7651a604c1019fa4e8779fe68ef27eeb74dff2de348f6199b60025460015f60025481526020019081526020015f205f015f9054906101000a900460ff16600281111562000550576200054f62000cbe565b5b83604051620005629392919062000fc8565b60405180910390a1600160025f8282546200057e9190620013b8565b92505081905550505050565b5f805f9054906101000a900473ffffffffffffffffffffffffffffffffffffffff16905090565b6001602052805f5260405f205f91509050805f015f9054906101000a900460ff1690806001018054620005e490620010b9565b80601f01602080910402602001604051908101604052809291908181526020018280546200061290620010b9565b8015620006615780601f10620006375761010080835404028352916020019162000661565b820191905f5260205f20905b8154815290600101906020018083116200064357829003601f168201915b505050505090806002015f9054906101000a900473ffffffffffffffffffffffffffffffffffffffff16905083565b6200069a62000899565b60016002811115620006b157620006b062000cbe565b5b60015f8381526020019081526020015f205f015f9054906101000a900460ff166002811115620006e657620006e562000cbe565b5b1462000729576040517f08c379a0000000000000000000000000000000000000000000000000000000008152600401620007209062000fa8565b60405180910390fd5b600260015f8381526020019081526020015f205f015f6101000a81548160ff0219169083600281111562000762576200076162000cbe565b5b02179055507fa4035636e99f06b7651a604c1019fa4e8779fe68ef27eeb74dff2de348f6199b8160015f8481526020019081526020015f205f015f9054906101000a900460ff166002811115620007be57620007bd62000cbe565b5b60015f8581526020019081526020015f206002015f9054906101000a900473ffffffffffffffffffffffffffffffffffffffff16604051620008039392919062000fc8565b60405180910390a150565b6200081862000899565b5f73ffffffffffffffffffffffffffffffffffffffff168173ffffffffffffffffffffffffffffffffffffffff16036200088b575f6040517f1e4fbdf700000000000000000000000000000000000000000000000000000000815260040162000882919062000ca3565b60405180910390fd5b620008968162000929565b50565b620008a3620009ea565b73ffffffffffffffffffffffffffffffffffffffff16620008c36200058a565b73ffffffffffffffffffffffffffffffffffffffff16146200092757620008e9620009ea565b6040517f118cdaa70000000000000000000000000000000000000000000000000000000081526004016200091e919062000ca3565b60405180910390fd5b565b5f805f9054906101000a900473ffffffffffffffffffffffffffffffffffffffff169050815f806101000a81548173ffffffffffffffffffffffffffffffffffffffff021916908373ffffffffffffffffffffffffffffffffffffffff1602179055508173ffffffffffffffffffffffffffffffffffffffff168173ffffffffffffffffffffffffffffffffffffffff167f8be0079c531659141344cd1fd0a4f28419497f9722a3daafe3b4186f6b6457e060405160405180910390a35050565b5f33905090565b610a3980620013f383390190565b5f819050919050565b62000a1381620009ff565b82525050565b5f60208201905062000a2e5f83018462000a08565b92915050565b5f604051905090565b5f80fd5b5f80fd5b62000a5081620009ff565b811462000a5b575f80fd5b50565b5f8135905062000a6e8162000a45565b92915050565b5f6020828403121562000a8c5762000a8b62000a3d565b5b5f62000a9b8482850162000a5e565b91505092915050565b5f80fd5b5f80fd5b5f601f19601f8301169050919050565b7f4e487b71000000000000000000000000000000000000000000000000000000005f52604160045260245ffd5b62000af48262000aac565b810181811067ffffffffffffffff8211171562000b165762000b1562000abc565b5b80604052505050565b5f62000b2a62000a34565b905062000b38828262000ae9565b919050565b5f67ffffffffffffffff82111562000b5a5762000b5962000abc565b5b62000b658262000aac565b9050602081019050919050565b828183375f83830152505050565b5f62000b9662000b908462000b3d565b62000b1f565b90508281526020810184848401111562000bb55762000bb462000aa8565b5b62000bc284828562000b72565b509392505050565b5f82601f83011262000be15762000be062000aa4565b5b813562000bf384826020860162000b80565b91505092915050565b5f806040838503121562000c155762000c1462000a3d565b5b5f83013567ffffffffffffffff81111562000c355762000c3462000a41565b5b62000c438582860162000bca565b925050602062000c568582860162000a5e565b9150509250929050565b5f73ffffffffffffffffffffffffffffffffffffffff82169050919050565b5f62000c8b8262000c60565b9050919050565b62000c9d8162000c7f565b82525050565b5f60208201905062000cb85f83018462000c92565b92915050565b7f4e487b71000000000000000000000000000000000000000000000000000000005f52602160045260245ffd5b6003811062000cff5762000cfe62000cbe565b5b50565b5f81905062000d118262000ceb565b919050565b5f62000d228262000d02565b9050919050565b62000d348162000d16565b82525050565b5f81519050919050565b5f82825260208201905092915050565b5f5b8381101562000d7357808201518184015260208101905062000d56565b5f8484015250505050565b5f62000d8a8262000d3a565b62000d96818562000d44565b935062000da881856020860162000d54565b62000db38162000aac565b840191505092915050565b5f819050919050565b5f62000de762000de162000ddb8462000c60565b62000dbe565b62000c60565b9050919050565b5f62000dfa8262000dc7565b9050919050565b5f62000e0d8262000dee565b9050919050565b62000e1f8162000e01565b82525050565b5f60608201905062000e3a5f83018662000d29565b818103602083015262000e4e818562000d7e565b905062000e5f604083018462000e14565b949350505050565b62000e728162000c7f565b811462000e7d575f80fd5b50565b5f8135905062000e908162000e67565b92915050565b5f6020828403121562000eae5762000ead62000a3d565b5b5f62000ebd8482850162000e80565b91505092915050565b7f6f6e6c79206974656d20636f6e747261637420697320616c6c6f77656420746f5f8201527f2073656e64207472616e73616374696f6e000000000000000000000000000000602082015250565b5f62000f2260318362000d44565b915062000f2f8262000ec6565b604082019050919050565b5f6020820190508181035f83015262000f538162000f14565b9050919050565b7f6675727468657220696e20737570706c7920636861696e0000000000000000005f82015250565b5f62000f9060178362000d44565b915062000f9d8262000f5a565b602082019050919050565b5f6020820190508181035f83015262000fc18162000f82565b9050919050565b5f60608201905062000fdd5f83018662000a08565b62000fec602083018562000a08565b62000ffb604083018462000c92565b949350505050565b5f6200100f8262000dc7565b9050919050565b5f620010228262001003565b9050919050565b620010348162001016565b82525050565b5f6080820190508181035f83015262001054818762000d7e565b905062001065602083018662000a08565b62001074604083018562000a08565b62001083606083018462001029565b95945050505050565b7f4e487b71000000000000000000000000000000000000000000000000000000005f52602260045260245ffd5b5f6002820490506001821680620010d157607f821691505b602082108103620010e757620010e66200108c565b5b50919050565b5f819050815f5260205f209050919050565b5f6020601f8301049050919050565b5f82821b905092915050565b5f600883026200114b7fffffffffffffffffffffffffffffffffffffffffffffffffffffffffffffffff826200110e565b6200115786836200110e565b95508019841693508086168417925050509392505050565b5f6200118f620011896200118384620009ff565b62000dbe565b620009ff565b9050919050565b5f819050919050565b620011aa836200116f565b620011c2620011b98262001196565b8484546200111a565b825550505050565b5f90565b620011d8620011ca565b620011e58184846200119f565b505050565b5b818110156200120c57620012005f82620011ce565b600181019050620011eb565b5050565b601f8211156200125b576200122581620010ed565b6200123084620010ff565b8101602085101562001240578190505b620012586200124f85620010ff565b830182620011ea565b50505b505050565b5f82821c905092915050565b5f6200127d5f198460080262001260565b1980831691505092915050565b5f6200129783836200126c565b9150826002028217905092915050565b620012b28262000d3a565b67ffffffffffffffff811115620012ce57620012cd62000abc565b5b620012da8254620010b9565b620012e782828562001210565b5f60209050601f8311600181146200131d575f841562001308578287015190505b6200131485826200128a565b86555062001383565b601f1984166200132d86620010ed565b5f5b8281101562001356578489015182556001820191506020850194506020810190506200132f565b8683101562001376578489015162001372601f8916826200126c565b8355505b6001600288020188555050505b505050505050565b7f4e487b71000000000000000000000000000000000000000000000000000000005f52601160045260245ffd5b5f620013c482620009ff565b9150620013d183620009ff565b9250828201905080821115620013ec57620013eb6200138b565b5b9291505056fe608060405234801562000010575f80fd5b5060405162000a3938038062000a398339818101604052810190620000369190620002d0565b835f90816200004691906200058c565b5082600181905550816002819055508060035f6101000a81548173ffffffffffffffffffffffffffffffffffffffff021916908373ffffffffffffffffffffffffffffffffffffffff1602179055505050505062000670565b5f604051905090565b5f80fd5b5f80fd5b5f80fd5b5f80fd5b5f601f19601f8301169050919050565b7f4e487b71000000000000000000000000000000000000000000000000000000005f52604160045260245ffd5b6200010082620000b8565b810181811067ffffffffffffffff82111715620001225762000121620000c8565b5b80604052505050565b5f620001366200009f565b9050620001448282620000f5565b919050565b5f67ffffffffffffffff821115620001665762000165620000c8565b5b6200017182620000b8565b9050602081019050919050565b5f5b838110156200019d57808201518184015260208101905062000180565b5f8484015250505050565b5f620001be620001b88462000149565b6200012b565b905082815260208101848484011115620001dd57620001dc620000b4565b5b620001ea8482856200017e565b509392505050565b5f82601f830112620002095762000208620000b0565b5b81516200021b848260208601620001a8565b91505092915050565b5f819050919050565b620002388162000224565b811462000243575f80fd5b50565b5f8151905062000256816200022d565b92915050565b5f73ffffffffffffffffffffffffffffffffffffffff82169050919050565b5f62000287826200025c565b9050919050565b5f6200029a826200027b565b9050919050565b620002ac816200028e565b8114620002b7575f80fd5b50565b5f81519050620002ca81620002a1565b92915050565b5f805f8060808587031215620002eb57620002ea620000a8565b5b5f85015167ffffffffffffffff8111156200030b576200030a620000ac565b5b6200031987828801620001f2565b94505060206200032c8782880162000246565b93505060406200033f8782880162000246565b92505060606200035287828801620002ba565b91505092959194509250565b5f81519050919050565b7f4e487b71000000000000000000000000000000000000000000000000000000005f52602260045260245ffd5b5f6002820490506001821680620003ad57607f821691505b602082108103620003c357620003c262000368565b5b50919050565b5f819050815f5260205f209050919050565b5f6020601f8301049050919050565b5f82821b905092915050565b5f60088302620004277fffffffffffffffffffffffffffffffffffffffffffffffffffffffffffffffff82620003ea565b620004338683620003ea565b95508019841693508086168417925050509392505050565b5f819050919050565b5f620004746200046e620004688462000224565b6200044b565b62000224565b9050919050565b5f819050919050565b6200048f8362000454565b620004a76200049e826200047b565b848454620003f6565b825550505050565b5f90565b620004bd620004af565b620004ca81848462000484565b505050565b5b81811015620004f157620004e55f82620004b3565b600181019050620004d0565b5050565b601f82111562000540576200050a81620003c9565b6200051584620003db565b8101602085101562000525578190505b6200053d6200053485620003db565b830182620004cf565b50505b505050565b5f82821c905092915050565b5f620005625f198460080262000545565b1980831691505092915050565b5f6200057c838362000551565b9150826002028217905092915050565b62000597826200035e565b67ffffffffffffffff811115620005b357620005b2620000c8565b5b620005bf825462000395565b620005cc828285620004f5565b5f60209050601f83116001811462000602575f8415620005ed578287015190505b620005f985826200056f565b86555062000668565b601f1984166200061286620003c9565b5f5b828110156200063b5784890151825560018201915060208501945060208101905062000614565b868310156200065b578489015162000657601f89168262000551565b8355505b6001600288020188555050505b505050505050565b6103bb806200067e5f395ff3fe60806040526004361061002c575f3560e01c8063babb3bcd14610100578063ec7c19c21461012a576100fc565b366100fc573460015414610075576040517f08c379a000000000000000000000000000000000000000000000000000000000815260040161006c9061023f565b60405180910390fd5b60035f9054906101000a900473ffffffffffffffffffffffffffffffffffffffff1673ffffffffffffffffffffffffffffffffffffffff1663800fb83f6002546040518263ffffffff1660e01b81526004016100d19190610275565b5f604051808303815f87803b1580156100e8575f80fd5b505af11580156100fa573d5f803e3d5ffd5b005b5f80fd5b34801561010b575f80fd5b50610114610154565b6040516101219190610275565b60405180910390f35b348015610135575f80fd5b5061013e61015a565b60405161014b9190610308565b60405180910390f35b60015481565b5f805461016690610355565b80601f016020809104026020016040519081016040528092919081815260200182805461019290610355565b80156101dd5780601f106101b4576101008083540402835291602001916101dd565b820191905f5260205f20905b8154815290600101906020018083116101c057829003601f168201915b505050505081565b5f82825260208201905092915050565b7f6f6e6c7920657861637420616d6f756e742069732061636365707465640000005f82015250565b5f610229601d836101e5565b9150610234826101f5565b602082019050919050565b5f6020820190508181035f8301526102568161021d565b9050919050565b5f819050919050565b61026f8161025d565b82525050565b5f6020820190506102885f830184610266565b92915050565b5f81519050919050565b5f5b838110156102b557808201518184015260208101905061029a565b5f8484015250505050565b5f601f19601f8301169050919050565b5f6102da8261028e565b6102e481856101e5565b93506102f4818560208601610298565b6102fd816102c0565b840191505092915050565b5f6020820190508181035f83015261032081846102d0565b905092915050565b7f4e487b71000000000000000000000000000000000000000000000000000000005f52602260045260245ffd5b5f600282049050600182168061036c57607f821691505b60208210810361037f5761037e610328565b5b5091905056fea26469706673582212204a3e11884f282f94b66743ca0e4fef812e2d2aad4bbf2cff6d8cb6a921819cfc64736f6c63430008140033a264697066735822122037ae3d535c2482f188db89d647ed5ecb2409acd80d20820c75c2bee815e4803764736f6c63430008140033",
  "immutableReferences": {},
  "source": "// SPDX-License-Identifier: GPL-3.0\r\n\r\npragma solidity ^0.8.20;\r\n\r\nimport \"@openzeppelin/contracts/access/Ownable.sol\";\r\nimport \"./Item.sol\";\r\n\r\ncontract Item_Manager is Ownable{\r\n    constructor() Ownable(msg.sender){\r\n\r\n    }\r\n\r\n    enum SupplyChainSteps {created, paid, delivereed}\r\n\r\n    struct S_Item { \r\n        SupplyChainSteps _step;\r\n        string _identifier;\r\n        Item _item;\r\n    }\r\n\r\n    mapping (uint => S_Item) public items;\r\n    uint public index;\r\n\r\n    event SupplyChainStep(uint index, uint step, address _address);\r\n\r\n    function createItem(string memory identifier, uint price) public onlyOwner {\r\n        Item newItem = new Item(identifier, price, index, this);\r\n        items[index]._step = SupplyChainSteps.created;\r\n        items[index]._identifier = identifier;\r\n        items[index]._item = newItem;\r\n        emit SupplyChainStep(index, uint(items[index]._step), address(newItem));\r\n        index +=1;\r\n    }\r\n\r\n    function triggerPayment(uint _index) public payable  {\r\n        Item curItem = items[_index]._item;\r\n        require(address(curItem) == msg.sender, \"only item contract is allowed to send transaction\");\r\n        require(items[_index]._step == SupplyChainSteps.created, \"further in supply chain\");\r\n        items[_index]._step = SupplyChainSteps.paid;\r\n        emit SupplyChainStep(_index , uint(items[_index]._step), address(curItem));\r\n    }\r\n\r\n    function triggerDelivery(uint _index) public onlyOwner{\r\n        require(items[_index]._step == SupplyChainSteps.paid, \"further in supply chain\");\r\n        items[_index]._step = SupplyChainSteps.delivereed;\r\n        emit SupplyChainStep(_index , uint(items[_index]._step), address(items[_index]._item));\r\n    }\r\n}\r\n\r\n",
  "sourcePath": "E:\\New folder (2)\\Web3-Projects-Solidity-and-Solana-\\Event TriggersSupply Chain Example With Truffle and React box\\truffle\\contracts\\Item_Manager.sol",
  "compiler": {
    "name": "solc",
    "version": "0.8.20+commit.a1b79de6.Emscripten.clang"
  },
  "schemaVersion": "3.4.16",
  "updatedAt": "2024-08-15T07:43:14.787Z",
  "networkType": "ethereum",
  "devdoc": {
    "errors": {
      "OwnableInvalidOwner(address)": [
        {
          "details": "The owner is not a valid owner account. (eg. `address(0)`)"
        }
      ],
      "OwnableUnauthorizedAccount(address)": [
        {
          "details": "The caller account is not authorized to perform an operation."
        }
      ]
    },
    "kind": "dev",
    "methods": {
      "owner()": {
        "details": "Returns the address of the current owner."
      },
      "renounceOwnership()": {
        "details": "Leaves the contract without owner. It will not be possible to call `onlyOwner` functions. Can only be called by the current owner. NOTE: Renouncing ownership will leave the contract without an owner, thereby disabling any functionality that is only available to the owner."
      },
      "transferOwnership(address)": {
        "details": "Transfers ownership of the contract to a new account (`newOwner`). Can only be called by the current owner."
      }
    },
    "version": 1
  },
  "userdoc": {
    "kind": "user",
    "methods": {},
    "version": 1
  }
}