{
  "_format": "hh-sol-artifact-1",
  "contractName": "BankAccount",
  "sourceName": "contracts/BankAccount.sol",
  "abi": [
    {
      "anonymous": false,
      "inputs": [
        {
          "indexed": false,
          "internalType": "address[]",
          "name": "owners",
          "type": "address[]"
        },
        {
          "indexed": true,
          "internalType": "uint256",
          "name": "id",
          "type": "uint256"
        },
        {
          "indexed": false,
          "internalType": "uint256",
          "name": "timestamp",
          "type": "uint256"
        }
      ],
      "name": "AccountCreated",
      "type": "event"
    },
    {
      "anonymous": false,
      "inputs": [
        {
          "indexed": true,
          "internalType": "address",
          "name": "user",
          "type": "address"
        },
        {
          "indexed": true,
          "internalType": "uint256",
          "name": "accountId",
          "type": "uint256"
        },
        {
          "indexed": false,
          "internalType": "uint256",
          "name": "value",
          "type": "uint256"
        },
        {
          "indexed": false,
          "internalType": "uint256",
          "name": "timestamp",
          "type": "uint256"
        }
      ],
      "name": "Deposit",
      "type": "event"
    },
    {
      "anonymous": false,
      "inputs": [
        {
          "indexed": true,
          "internalType": "uint256",
          "name": "withdrawId",
          "type": "uint256"
        },
        {
          "indexed": false,
          "internalType": "uint256",
          "name": "timestamp",
          "type": "uint256"
        }
      ],
      "name": "Withdraw",
      "type": "event"
    },
    {
      "anonymous": false,
      "inputs": [
        {
          "indexed": true,
          "internalType": "address",
          "name": "user",
          "type": "address"
        },
        {
          "indexed": true,
          "internalType": "uint256",
          "name": "accountId",
          "type": "uint256"
        },
        {
          "indexed": true,
          "internalType": "uint256",
          "name": "withdrawId",
          "type": "uint256"
        },
        {
          "indexed": false,
          "internalType": "uint256",
          "name": "amount",
          "type": "uint256"
        },
        {
          "indexed": false,
          "internalType": "uint256",
          "name": "timestamp",
          "type": "uint256"
        }
      ],
      "name": "WithdrawRequested",
      "type": "event"
    },
    {
      "inputs": [
        {
          "internalType": "uint256",
          "name": "accountId",
          "type": "uint256"
        },
        {
          "internalType": "uint256",
          "name": "withdrawId",
          "type": "uint256"
        }
      ],
      "name": "approveWithdrawl",
      "outputs": [],
      "stateMutability": "nonpayable",
      "type": "function"
    },
    {
      "inputs": [
        {
          "internalType": "address[]",
          "name": "otherOwners",
          "type": "address[]"
        }
      ],
      "name": "createAccount",
      "outputs": [],
      "stateMutability": "nonpayable",
      "type": "function"
    },
    {
      "inputs": [
        {
          "internalType": "uint256",
          "name": "accountId",
          "type": "uint256"
        }
      ],
      "name": "deposit",
      "outputs": [],
      "stateMutability": "payable",
      "type": "function"
    },
    {
      "inputs": [],
      "name": "getAccounts",
      "outputs": [
        {
          "internalType": "uint256[]",
          "name": "",
          "type": "uint256[]"
        }
      ],
      "stateMutability": "view",
      "type": "function"
    },
    {
      "inputs": [
        {
          "internalType": "uint256",
          "name": "accountId",
          "type": "uint256"
        },
        {
          "internalType": "uint256",
          "name": "withdrawId",
          "type": "uint256"
        }
      ],
      "name": "getApprovals",
      "outputs": [
        {
          "internalType": "uint256",
          "name": "",
          "type": "uint256"
        }
      ],
      "stateMutability": "view",
      "type": "function"
    },
    {
      "inputs": [
        {
          "internalType": "uint256",
          "name": "accountId",
          "type": "uint256"
        }
      ],
      "name": "getBalance",
      "outputs": [
        {
          "internalType": "uint256",
          "name": "",
          "type": "uint256"
        }
      ],
      "stateMutability": "view",
      "type": "function"
    },
    {
      "inputs": [
        {
          "internalType": "uint256",
          "name": "accountId",
          "type": "uint256"
        }
      ],
      "name": "getOwners",
      "outputs": [
        {
          "internalType": "address[]",
          "name": "",
          "type": "address[]"
        }
      ],
      "stateMutability": "view",
      "type": "function"
    },
    {
      "inputs": [
        {
          "internalType": "uint256",
          "name": "accountId",
          "type": "uint256"
        },
        {
          "internalType": "uint256",
          "name": "amount",
          "type": "uint256"
        }
      ],
      "name": "requestWithdrawl",
      "outputs": [],
      "stateMutability": "nonpayable",
      "type": "function"
    },
    {
      "inputs": [
        {
          "internalType": "uint256",
          "name": "accountId",
          "type": "uint256"
        },
        {
          "internalType": "uint256",
          "name": "withdrawId",
          "type": "uint256"
        }
      ],
      "name": "withdraw",
      "outputs": [],
      "stateMutability": "nonpayable",
      "type": "function"
    }
  ],
  "bytecode": "0x608060405234801561001057600080fd5b50611f6d806100206000396000f3fe6080604052600436106100865760003560e01c80638a48ac03116100595780638a48ac0314610157578063a52a6f9a14610182578063b6b55f25146101ab578063ee4525d5146101c7578063eff634331461020457610086565b80631e0104391461008b578063441a3e70146100c8578063785e5531146100f1578063867275a51461011a575b600080fd5b34801561009757600080fd5b506100b260048036038101906100ad91906114a0565b61022d565b6040516100bf91906114dc565b60405180910390f35b3480156100d457600080fd5b506100ef60048036038101906100ea91906114f7565b61024c565b005b3480156100fd57600080fd5b50610118600480360381019061011391906114f7565b610557565b005b34801561012657600080fd5b50610141600480360381019061013c91906114f7565b6109e7565b60405161014e91906114dc565b60405180910390f35b34801561016357600080fd5b5061016c610a1b565b60405161017991906115f5565b60405180910390f35b34801561018e57600080fd5b506101a960048036038101906101a491906114f7565b610ab0565b005b6101c560048036038101906101c091906114a0565b610cfb565b005b3480156101d357600080fd5b506101ee60048036038101906101e991906114a0565b610e2c565b6040516101fb9190611707565b60405180910390f35b34801561021057600080fd5b5061022b6004803603810190610226919061178e565b610ecf565b005b6000806000838152602001908152602001600020600101549050919050565b81813373ffffffffffffffffffffffffffffffffffffffff16600080848152602001908152602001600020600201600083815260200190815260200160002060000160009054906101000a900473ffffffffffffffffffffffffffffffffffffffff1673ffffffffffffffffffffffffffffffffffffffff1614610305576040517f08c379a00000000000000000000000000000000000000000000000000000000081526004016102fc90611838565b60405180910390fd5b600080838152602001908152602001600020600201600082815260200190815260200160002060040160009054906101000a900460ff1661037b576040517f08c379a0000000000000000000000000000000000000000000000000000000008152600401610372906118a4565b60405180910390fd5b6000806000868152602001908152602001600020600201600085815260200190815260200160002060010154905080600080878152602001908152602001600020600101541015610401576040517f08c379a00000000000000000000000000000000000000000000000000000000081526004016103f890611910565b60405180910390fd5b806000808781526020019081526020016000206001016000828254610426919061195f565b925050819055506000808681526020019081526020016000206002016000858152602001908152602001600020600080820160006101000a81549073ffffffffffffffffffffffffffffffffffffffff0219169055600182016000905560028201600090556004820160006101000a81549060ff0219169055505060003373ffffffffffffffffffffffffffffffffffffffff16826040516104c7906119c4565b60006040518083038185875af1925050503d8060008114610504576040519150601f19603f3d011682016040523d82523d6000602084013e610509565b606091505b505090508061051757600080fd5b847f56ca301a9219608c91e7bcee90e083c19671d2cdcc96752c7af291cee5f9c8c84260405161054791906114dc565b60405180910390a2505050505050565b816000805b60008084815260200190815260200160002060000180549050811015610616573373ffffffffffffffffffffffffffffffffffffffff1660008085815260200190815260200160002060000182815481106105ba576105b96119d9565b5b9060005260206000200160009054906101000a900473ffffffffffffffffffffffffffffffffffffffff1673ffffffffffffffffffffffffffffffffffffffff16036106095760019150610616565b808060010191505061055c565b5080610657576040517f08c379a000000000000000000000000000000000000000000000000000000000815260040161064e90611a7a565b60405180910390fd5b8383600080838152602001908152602001600020600201600082815260200190815260200160002060040160009054906101000a900460ff16156106d0576040517f08c379a00000000000000000000000000000000000000000000000000000000081526004016106c790611ae6565b60405180910390fd5b3373ffffffffffffffffffffffffffffffffffffffff16600080848152602001908152602001600020600201600083815260200190815260200160002060000160009054906101000a900473ffffffffffffffffffffffffffffffffffffffff1673ffffffffffffffffffffffffffffffffffffffff1603610787576040517f08c379a000000000000000000000000000000000000000000000000000000000815260040161077e90611b52565b60405180910390fd5b600073ffffffffffffffffffffffffffffffffffffffff16600080848152602001908152602001600020600201600083815260200190815260200160002060000160009054906101000a900473ffffffffffffffffffffffffffffffffffffffff1673ffffffffffffffffffffffffffffffffffffffff160361083f576040517f08c379a000000000000000000000000000000000000000000000000000000000815260040161083690611bbe565b60405180910390fd5b600080838152602001908152602001600020600201600082815260200190815260200160002060030160003373ffffffffffffffffffffffffffffffffffffffff1673ffffffffffffffffffffffffffffffffffffffff16815260200190815260200160002060009054906101000a900460ff16156108f3576040517f08c379a00000000000000000000000000000000000000000000000000000000081526004016108ea90611c50565b60405180910390fd5b60008060008881526020019081526020016000206002016000878152602001908152602001600020905080600201600081548092919061093290611c70565b919050555060018160030160003373ffffffffffffffffffffffffffffffffffffffff1673ffffffffffffffffffffffffffffffffffffffff16815260200190815260200160002060006101000a81548160ff0219169083151502179055506001600080898152602001908152602001600020600001805490506109b6919061195f565b8160020154036109de5760018160040160006101000a81548160ff0219169083151502179055505b50505050505050565b6000806000848152602001908152602001600020600201600083815260200190815260200160002060020154905092915050565b6060600160003373ffffffffffffffffffffffffffffffffffffffff1673ffffffffffffffffffffffffffffffffffffffff168152602001908152602001600020805480602002602001604051908101604052809291908181526020018280548015610aa657602002820191906000526020600020905b815481526020019060010190808311610a92575b5050505050905090565b816000805b60008084815260200190815260200160002060000180549050811015610b6f573373ffffffffffffffffffffffffffffffffffffffff166000808581526020019081526020016000206000018281548110610b1357610b126119d9565b5b9060005260206000200160009054906101000a900473ffffffffffffffffffffffffffffffffffffffff1673ffffffffffffffffffffffffffffffffffffffff1603610b625760019150610b6f565b8080600101915050610ab5565b5080610bb0576040517f08c379a0000000000000000000000000000000000000000000000000000000008152600401610ba790611a7a565b60405180910390fd5b838380600080848152602001908152602001600020600101541015610c0a576040517f08c379a0000000000000000000000000000000000000000000000000000000008152600401610c0190611910565b60405180910390fd5b60006003549050600080600089815260200190815260200160002060020160008381526020019081526020016000209050338160000160006101000a81548173ffffffffffffffffffffffffffffffffffffffff021916908373ffffffffffffffffffffffffffffffffffffffff16021790555086816001018190555060036000815480929190610c9a90611c70565b919050555081883373ffffffffffffffffffffffffffffffffffffffff167f1f0d204a59639d21245dbaa239dfc9a6227aa86cb614bdda19843c52d155fcfa8a42604051610ce9929190611cb8565b60405180910390a45050505050505050565b806000805b60008084815260200190815260200160002060000180549050811015610dba573373ffffffffffffffffffffffffffffffffffffffff166000808581526020019081526020016000206000018281548110610d5e57610d5d6119d9565b5b9060005260206000200160009054906101000a900473ffffffffffffffffffffffffffffffffffffffff1673ffffffffffffffffffffffffffffffffffffffff1603610dad5760019150610dba565b8080600101915050610d00565b5080610dfb576040517f08c379a0000000000000000000000000000000000000000000000000000000008152600401610df290611a7a565b60405180910390fd5b346000808581526020019081526020016000206001016000828254610e209190611ce1565b92505081905550505050565b6060600080838152602001908152602001600020600001805480602002602001604051908101604052809291908181526020018280548015610ec357602002820191906000526020600020905b8160009054906101000a900473ffffffffffffffffffffffffffffffffffffffff1673ffffffffffffffffffffffffffffffffffffffff1681526020019060010190808311610e79575b50505050509050919050565b81816004600183839050610ee39190611ce1565b1115610f24576040517f08c379a0000000000000000000000000000000000000000000000000000000008152600401610f1b90611d61565b60405180910390fd5b60005b828290508110156110bb573373ffffffffffffffffffffffffffffffffffffffff16838383818110610f5c57610f5b6119d9565b5b9050602002016020810190610f719190611dad565b73ffffffffffffffffffffffffffffffffffffffff1603610fc7576040517f08c379a0000000000000000000000000000000000000000000000000000000008152600401610fbe90611e26565b60405180910390fd5b6000600182610fd69190611ce1565b90505b838390508110156110ad57838382818110610ff757610ff66119d9565b5b905060200201602081019061100c9190611dad565b73ffffffffffffffffffffffffffffffffffffffff16848484818110611035576110346119d9565b5b905060200201602081019061104a9190611dad565b73ffffffffffffffffffffffffffffffffffffffff16036110a0576040517f08c379a000000000000000000000000000000000000000000000000000000000815260040161109790611e26565b60405180910390fd5b8080600101915050610fd9565b508080600101915050610f27565b5060006001858590506110ce9190611ce1565b67ffffffffffffffff8111156110e7576110e6611e46565b5b6040519080825280602002602001820160405280156111155781602001602082028036833780820191505090505b5090503381868690508151811061112f5761112e6119d9565b5b602002602001019073ffffffffffffffffffffffffffffffffffffffff16908173ffffffffffffffffffffffffffffffffffffffff16815250506000600254905060005b8251811015611334576001835161118a919061195f565b811015611207578686828181106111a4576111a36119d9565b5b90506020020160208101906111b99190611dad565b8382815181106111cc576111cb6119d9565b5b602002602001019073ffffffffffffffffffffffffffffffffffffffff16908173ffffffffffffffffffffffffffffffffffffffff16815250505b6002600160008584815181106112205761121f6119d9565b5b602002602001015173ffffffffffffffffffffffffffffffffffffffff1673ffffffffffffffffffffffffffffffffffffffff1681526020019081526020016000208054905011156112a7576040517f08c379a000000000000000000000000000000000000000000000000000000000815260040161129e90611ee7565b60405180910390fd5b600160008483815181106112be576112bd6119d9565b5b602002602001015173ffffffffffffffffffffffffffffffffffffffff1673ffffffffffffffffffffffffffffffffffffffff1681526020019081526020016000208290806001815401808255809150506001900390600052602060002001600090919091909150558080600101915050611173565b5081600080838152602001908152602001600020600001908051906020019061135e9291906113b9565b506002600081548092919061137290611c70565b9190505550807f1dfea57c7217d8ee2ef44253419f3a05acdf0e6dea69f12e9e2afa2e748e3c8c83426040516113a9929190611f07565b60405180910390a2505050505050565b828054828255906000526020600020908101928215611432579160200282015b828111156114315782518260006101000a81548173ffffffffffffffffffffffffffffffffffffffff021916908373ffffffffffffffffffffffffffffffffffffffff160217905550916020019190600101906113d9565b5b50905061143f9190611443565b5090565b5b8082111561145c576000816000905550600101611444565b5090565b600080fd5b600080fd5b6000819050919050565b61147d8161146a565b811461148857600080fd5b50565b60008135905061149a81611474565b92915050565b6000602082840312156114b6576114b5611460565b5b60006114c48482850161148b565b91505092915050565b6114d68161146a565b82525050565b60006020820190506114f160008301846114cd565b92915050565b6000806040838503121561150e5761150d611460565b5b600061151c8582860161148b565b925050602061152d8582860161148b565b9150509250929050565b600081519050919050565b600082825260208201905092915050565b6000819050602082019050919050565b61156c8161146a565b82525050565b600061157e8383611563565b60208301905092915050565b6000602082019050919050565b60006115a282611537565b6115ac8185611542565b93506115b783611553565b8060005b838110156115e85781516115cf8882611572565b97506115da8361158a565b9250506001810190506115bb565b5085935050505092915050565b6000602082019050818103600083015261160f8184611597565b905092915050565b600081519050919050565b600082825260208201905092915050565b6000819050602082019050919050565b600073ffffffffffffffffffffffffffffffffffffffff82169050919050565b600061166e82611643565b9050919050565b61167e81611663565b82525050565b60006116908383611675565b60208301905092915050565b6000602082019050919050565b60006116b482611617565b6116be8185611622565b93506116c983611633565b8060005b838110156116fa5781516116e18882611684565b97506116ec8361169c565b9250506001810190506116cd565b5085935050505092915050565b6000602082019050818103600083015261172181846116a9565b905092915050565b600080fd5b600080fd5b600080fd5b60008083601f84011261174e5761174d611729565b5b8235905067ffffffffffffffff81111561176b5761176a61172e565b5b60208301915083602082028301111561178757611786611733565b5b9250929050565b600080602083850312156117a5576117a4611460565b5b600083013567ffffffffffffffff8111156117c3576117c2611465565b5b6117cf85828601611738565b92509250509250929050565b600082825260208201905092915050565b7f796f7520646964206e6f74206372656174652074686973207265717565737400600082015250565b6000611822601f836117db565b915061182d826117ec565b602082019050919050565b6000602082019050818103600083015261185181611815565b9050919050565b7f746869732072657175657374206973206e6f7420617070726f76656400000000600082015250565b600061188e601c836117db565b915061189982611858565b602082019050919050565b600060208201905081810360008301526118bd81611881565b9050919050565b7f696e73756666696369656e742062616c616e6365000000000000000000000000600082015250565b60006118fa6014836117db565b9150611905826118c4565b602082019050919050565b60006020820190508181036000830152611929816118ed565b9050919050565b7f4e487b7100000000000000000000000000000000000000000000000000000000600052601160045260246000fd5b600061196a8261146a565b91506119758361146a565b925082820390508181111561198d5761198c611930565b5b92915050565b600081905092915050565b50565b60006119ae600083611993565b91506119b98261199e565b600082019050919050565b60006119cf826119a1565b9150819050919050565b7f4e487b7100000000000000000000000000000000000000000000000000000000600052603260045260246000fd5b7f796f7520617265206e6f7420616e206f776e6572206f6620746869732061636360008201527f6f756e7400000000000000000000000000000000000000000000000000000000602082015250565b6000611a646024836117db565b9150611a6f82611a08565b604082019050919050565b60006020820190508181036000830152611a9381611a57565b9050919050565b7f74686973207265717565737420697320616c726561647920617070726f766564600082015250565b6000611ad06020836117db565b9150611adb82611a9a565b602082019050919050565b60006020820190508181036000830152611aff81611ac3565b9050919050565b7f796f752063616e6e6f7420617070726f76652074686973207265717565737400600082015250565b6000611b3c601f836117db565b9150611b4782611b06565b602082019050919050565b60006020820190508181036000830152611b6b81611b2f565b9050919050565b7f74686973207265717565737420646f6573206e6f742065786973740000000000600082015250565b6000611ba8601b836117db565b9150611bb382611b72565b602082019050919050565b60006020820190508181036000830152611bd781611b9b565b9050919050565b7f796f75206861766520616c726561647920617070726f7665642074686973207260008201527f6571756573740000000000000000000000000000000000000000000000000000602082015250565b6000611c3a6026836117db565b9150611c4582611bde565b604082019050919050565b60006020820190508181036000830152611c6981611c2d565b9050919050565b6000611c7b8261146a565b91507fffffffffffffffffffffffffffffffffffffffffffffffffffffffffffffffff8203611cad57611cac611930565b5b600182019050919050565b6000604082019050611ccd60008301856114cd565b611cda60208301846114cd565b9392505050565b6000611cec8261146a565b9150611cf78361146a565b9250828201905080821115611d0f57611d0e611930565b5b92915050565b7f6d6178696d756d206f662034206f776e65727320706572206163636f756e7400600082015250565b6000611d4b601f836117db565b9150611d5682611d15565b602082019050919050565b60006020820190508181036000830152611d7a81611d3e565b9050919050565b611d8a81611663565b8114611d9557600080fd5b50565b600081359050611da781611d81565b92915050565b600060208284031215611dc357611dc2611460565b5b6000611dd184828501611d98565b91505092915050565b7f6e6f206475706c6963617465206f776e65727300000000000000000000000000600082015250565b6000611e106013836117db565b9150611e1b82611dda565b602082019050919050565b60006020820190508181036000830152611e3f81611e03565b9050919050565b7f4e487b7100000000000000000000000000000000000000000000000000000000600052604160045260246000fd5b7f6561636820757365722063616e20686176652061206d6178206f66203320616360008201527f636f756e74730000000000000000000000000000000000000000000000000000602082015250565b6000611ed16026836117db565b9150611edc82611e75565b604082019050919050565b60006020820190508181036000830152611f0081611ec4565b9050919050565b60006040820190508181036000830152611f2181856116a9565b9050611f3060208301846114cd565b939250505056fea26469706673582212205df0feba940d0ceed3c6ed754ba0246f1b068d655a35e6a9e7a4f82bdb44a84764736f6c63430008180033",
  "linkReferences": {},
  "deployedLinkReferences": {}
}