{
  "contractName": "chai",
  "abi": [
    {
      "inputs": [],
      "stateMutability": "nonpayable",
      "type": "constructor"
    },
    {
      "inputs": [
        {
          "internalType": "string",
          "name": "name",
          "type": "string"
        },
        {
          "internalType": "string",
          "name": "message",
          "type": "string"
        }
      ],
      "name": "buyChai",
      "outputs": [],
      "stateMutability": "payable",
      "type": "function",
      "payable": true
    },
    {
      "inputs": [],
      "name": "getMemos",
      "outputs": [
        {
          "components": [
            {
              "internalType": "string",
              "name": "name",
              "type": "string"
            },
            {
              "internalType": "string",
              "name": "message",
              "type": "string"
            },
            {
              "internalType": "uint256",
              "name": "timestamp",
              "type": "uint256"
            },
            {
              "internalType": "address",
              "name": "from",
              "type": "address"
            }
          ],
          "internalType": "struct chai.Memo[]",
          "name": "",
          "type": "tuple[]"
        }
      ],
      "stateMutability": "view",
      "type": "function",
      "constant": true
    }
  ],
  "bytecode": "0x608060405234801561001057600080fd5b5033600160006101000a81548173ffffffffffffffffffffffffffffffffffffffff021916908373ffffffffffffffffffffffffffffffffffffffff160217905550610b5b806100616000396000f3fe6080604052600436106100295760003560e01c80636a13d8591461002e578063865c51721461004a575b600080fd5b610048600480360381019061004391906104e2565b610075565b005b34801561005657600080fd5b5061005f610290565b60405161006c9190610779565b60405180910390f35b600034116100b8576040517f08c379a00000000000000000000000000000000000000000000000000000000081526004016100af906107f8565b60405180910390fd5b600160009054906101000a900473ffffffffffffffffffffffffffffffffffffffff1673ffffffffffffffffffffffffffffffffffffffff166108fc349081150290604051600060405180830381858888f19350505050158015610120573d6000803e3d6000fd5b506000604051806080016040528086868080601f016020809104026020016040519081016040528093929190818152602001838380828437600081840152601f19601f82011690508083019250505050505050815260200184848080601f016020809104026020016040519081016040528093929190818152602001838380828437600081840152601f19601f8201169050808301925050505050505081526020014281526020013373ffffffffffffffffffffffffffffffffffffffff16815250908060018154018082558091505060019003906000526020600020906004020160009091909190915060008201518160000190816102209190610a53565b5060208201518160010190816102369190610a53565b506040820151816002015560608201518160030160006101000a81548173ffffffffffffffffffffffffffffffffffffffff021916908373ffffffffffffffffffffffffffffffffffffffff160217905550505050505050565b60606000805480602002602001604051908101604052809291908181526020016000905b8282101561046a57838290600052602060002090600402016040518060800160405290816000820180546102e790610876565b80601f016020809104026020016040519081016040528092919081815260200182805461031390610876565b80156103605780601f1061033557610100808354040283529160200191610360565b820191906000526020600020905b81548152906001019060200180831161034357829003601f168201915b5050505050815260200160018201805461037990610876565b80601f01602080910402602001604051908101604052809291908181526020018280546103a590610876565b80156103f25780601f106103c7576101008083540402835291602001916103f2565b820191906000526020600020905b8154815290600101906020018083116103d557829003601f168201915b50505050508152602001600282015481526020016003820160009054906101000a900473ffffffffffffffffffffffffffffffffffffffff1673ffffffffffffffffffffffffffffffffffffffff1673ffffffffffffffffffffffffffffffffffffffff1681525050815260200190600101906102b4565b50505050905090565b600080fd5b600080fd5b600080fd5b600080fd5b600080fd5b60008083601f8401126104a2576104a161047d565b5b8235905067ffffffffffffffff8111156104bf576104be610482565b5b6020830191508360018202830111156104db576104da610487565b5b9250929050565b600080600080604085870312156104fc576104fb610473565b5b600085013567ffffffffffffffff81111561051a57610519610478565b5b6105268782880161048c565b9450945050602085013567ffffffffffffffff81111561054957610548610478565b5b6105558782880161048c565b925092505092959194509250565b600081519050919050565b600082825260208201905092915050565b6000819050602082019050919050565b600081519050919050565b600082825260208201905092915050565b60005b838110156105c95780820151818401526020810190506105ae565b60008484015250505050565b6000601f19601f8301169050919050565b60006105f18261058f565b6105fb818561059a565b935061060b8185602086016105ab565b610614816105d5565b840191505092915050565b6000819050919050565b6106328161061f565b82525050565b600073ffffffffffffffffffffffffffffffffffffffff82169050919050565b600061066382610638565b9050919050565b61067381610658565b82525050565b6000608083016000830151848203600086015261069682826105e6565b915050602083015184820360208601526106b082826105e6565b91505060408301516106c56040860182610629565b5060608301516106d8606086018261066a565b508091505092915050565b60006106ef8383610679565b905092915050565b6000602082019050919050565b600061070f82610563565b610719818561056e565b93508360208202850161072b8561057f565b8060005b85811015610767578484038952815161074885826106e3565b9450610753836106f7565b925060208a0199505060018101905061072f565b50829750879550505050505092915050565b600060208201905081810360008301526107938184610704565b905092915050565b600082825260208201905092915050565b7f506c6561736520706179206d6f7265207468616e203020657468657200000000600082015250565b60006107e2601c8361079b565b91506107ed826107ac565b602082019050919050565b60006020820190508181036000830152610811816107d5565b9050919050565b7f4e487b7100000000000000000000000000000000000000000000000000000000600052604160045260246000fd5b7f4e487b7100000000000000000000000000000000000000000000000000000000600052602260045260246000fd5b6000600282049050600182168061088e57607f821691505b6020821081036108a1576108a0610847565b5b50919050565b60008190508160005260206000209050919050565b60006020601f8301049050919050565b600082821b905092915050565b6000600883026109097fffffffffffffffffffffffffffffffffffffffffffffffffffffffffffffffff826108cc565b61091386836108cc565b95508019841693508086168417925050509392505050565b6000819050919050565b600061095061094b6109468461061f565b61092b565b61061f565b9050919050565b6000819050919050565b61096a83610935565b61097e61097682610957565b8484546108d9565b825550505050565b600090565b610993610986565b61099e818484610961565b505050565b5b818110156109c2576109b760008261098b565b6001810190506109a4565b5050565b601f821115610a07576109d8816108a7565b6109e1846108bc565b810160208510156109f0578190505b610a046109fc856108bc565b8301826109a3565b50505b505050565b600082821c905092915050565b6000610a2a60001984600802610a0c565b1980831691505092915050565b6000610a438383610a19565b9150826002028217905092915050565b610a5c8261058f565b67ffffffffffffffff811115610a7557610a74610818565b5b610a7f8254610876565b610a8a8282856109c6565b600060209050601f831160018114610abd5760008415610aab578287015190505b610ab58582610a37565b865550610b1d565b601f198416610acb866108a7565b60005b82811015610af357848901518255600182019150602085019450602081019050610ace565b86831015610b105784890151610b0c601f891682610a19565b8355505b6001600288020188555050505b50505050505056fea2646970667358221220f67d0392bce8415d57828b15a4dada93b9efee30040f8b1b5ee8645bace616d264736f6c63430008120033",
  "immutableReferences": {},
  "source": "// SPDX-License-Identifier: MIT\npragma solidity >=0.7.0 <0.9.0;\n\ncontract chai{\n\n    struct Memo{\n        string name;\n        string message;\n        uint timestamp;\n        address from;\n    }\n\n    Memo[] memos;\n    address payable owner; //owner is going to receive funds\n    constructor(){\n        owner = payable(msg.sender);\n    }\n\n    function buyChai(string calldata name,string calldata message) external payable{\n        require(msg.value>0,\"Please pay more than 0 ether\");\n        owner.transfer(msg.value);\n        memos.push(Memo(name,message,block.timestamp,msg.sender));\n    }\n\n    function getMemos() public view returns(Memo[] memory){\n        return memos;\n    }\n}",
  "sourcePath": "E:\\New folder (2)\\Web3-Projects-Solidity-and-Solana-\\Chai Dapp -- Truffle React\\truffle\\contracts\\chai.sol",
  "compiler": {
    "name": "solc",
    "version": "0.8.18+commit.87f61d96.Emscripten.clang"
  },
  "schemaVersion": "3.4.16",
  "updatedAt": "2024-08-08T10:44:28.430Z",
  "networkType": "ethereum",
  "devdoc": {
    "kind": "dev",
    "methods": {},
    "version": 1
  },
  "userdoc": {
    "kind": "user",
    "methods": {},
    "version": 1
  }
}